{
	"data": {
		"bytecode": {
			"linkReferences": {},
			"object": "608060405260c8600c553480156200001657600080fd5b506040518060400160405280600781526020017f4861636b4a4d49000000000000000000000000000000000000000000000000008152506040518060400160405280600381526020017f4a4d490000000000000000000000000000000000000000000000000000000000815250816000908162000094919062000329565b508060019081620000a6919062000329565b50505062000410565b600081519050919050565b7f4e487b7100000000000000000000000000000000000000000000000000000000600052604160045260246000fd5b7f4e487b7100000000000000000000000000000000000000000000000000000000600052602260045260246000fd5b600060028204905060018216806200013157607f821691505b602082108103620001475762000146620000e9565b5b50919050565b60008190508160005260206000209050919050565b60006020601f8301049050919050565b600082821b905092915050565b600060088302620001b17fffffffffffffffffffffffffffffffffffffffffffffffffffffffffffffffff8262000172565b620001bd868362000172565b95508019841693508086168417925050509392505050565b6000819050919050565b6000819050919050565b60006200020a62000204620001fe84620001d5565b620001df565b620001d5565b9050919050565b6000819050919050565b6200022683620001e9565b6200023e620002358262000211565b8484546200017f565b825550505050565b600090565b6200025562000246565b620002628184846200021b565b505050565b5b818110156200028a576200027e6000826200024b565b60018101905062000268565b5050565b601f821115620002d957620002a3816200014d565b620002ae8462000162565b81016020851015620002be578190505b620002d6620002cd8562000162565b83018262000267565b50505b505050565b600082821c905092915050565b6000620002fe60001984600802620002de565b1980831691505092915050565b6000620003198383620002eb565b9150826002028217905092915050565b6200033482620000af565b67ffffffffffffffff81111562000350576200034f620000ba565b5b6200035c825462000118565b620003698282856200028e565b600060209050601f831160018114620003a157600084156200038c578287015190505b6200039885826200030b565b86555062000408565b601f198416620003b1866200014d565b60005b82811015620003db57848901518255600182019150602085019450602081019050620003b4565b86831015620003fb5784890151620003f7601f891682620002eb565b8355505b6001600288020188555050505b505050505050565b61361e80620004206000396000f3fe608060405234801561001057600080fd5b506004361061010b5760003560e01c80634f6ccce7116100a2578063a22cb46511610071578063a22cb465146102de578063b88d4fde146102fa578063c87b56dd14610316578063d204c45e14610346578063e985e9c5146103625761010b565b80634f6ccce7146102305780636352211e1461026057806370a082311461029057806395d89b41146102c05761010b565b806318160ddd116100de57806318160ddd146101aa57806323b872dd146101c85780632f745c59146101e457806342842e0e146102145761010b565b806301ffc9a71461011057806306fdde0314610140578063081812fc1461015e578063095ea7b31461018e575b600080fd5b61012a600480360381019061012591906121d0565b610392565b6040516101379190612218565b60405180910390f35b6101486103a4565b60405161015591906122c3565b60405180910390f35b6101786004803603810190610173919061231b565b610436565b6040516101859190612389565b60405180910390f35b6101a860048036038101906101a391906123d0565b61047c565b005b6101b2610593565b6040516101bf919061241f565b60405180910390f35b6101e260048036038101906101dd919061243a565b6105a0565b005b6101fe60048036038101906101f991906123d0565b610600565b60405161020b919061241f565b60405180910390f35b61022e6004803603810190610229919061243a565b6106a5565b005b61024a6004803603810190610245919061231b565b6106c5565b604051610257919061241f565b60405180910390f35b61027a6004803603810190610275919061231b565b610736565b6040516102879190612389565b60405180910390f35b6102aa60048036038101906102a5919061248d565b6107bc565b6040516102b7919061241f565b60405180910390f35b6102c8610873565b6040516102d591906122c3565b60405180910390f35b6102f860048036038101906102f391906124e6565b610905565b005b610314600480360381019061030f919061265b565b61091b565b005b610330600480360381019061032b919061231b565b61097d565b60405161033d91906122c3565b60405180910390f35b610360600480360381019061035b919061277f565b61098f565b005b61037c600480360381019061037791906127db565b610a05565b6040516103899190612218565b60405180910390f35b600061039d82610a99565b9050919050565b6060600080546103b39061284a565b80601f01602080910402602001604051908101604052809291908181526020018280546103df9061284a565b801561042c5780601f106104015761010080835404028352916020019161042c565b820191906000526020600020905b81548152906001019060200180831161040f57829003601f168201915b5050505050905090565b600061044182610b13565b6004600083815260200190815260200160002060009054906101000a900473ffffffffffffffffffffffffffffffffffffffff169050919050565b600061048782610736565b90508073ffffffffffffffffffffffffffffffffffffffff168373ffffffffffffffffffffffffffffffffffffffff16036104f7576040517f08c379a00000000000000000000000000000000000000000000000000000000081526004016104ee906128ed565b60405180910390fd5b8073ffffffffffffffffffffffffffffffffffffffff16610516610b5e565b73ffffffffffffffffffffffffffffffffffffffff16148061054557506105448161053f610b5e565b610a05565b5b610584576040517f08c379a000000000000000000000000000000000000000000000000000000000815260040161057b9061297f565b60405180910390fd5b61058e8383610b66565b505050565b6000600880549050905090565b6105b16105ab610b5e565b82610c1f565b6105f0576040517f08c379a00000000000000000000000000000000000000000000000000000000081526004016105e790612a11565b60405180910390fd5b6105fb838383610cb4565b505050565b600061060b836107bc565b821061064c576040517f08c379a000000000000000000000000000000000000000000000000000000000815260040161064390612aa3565b60405180910390fd5b600660008473ffffffffffffffffffffffffffffffffffffffff1673ffffffffffffffffffffffffffffffffffffffff168152602001908152602001600020600083815260200190815260200160002054905092915050565b6106c08383836040518060200160405280600081525061091b565b505050565b60006106cf610593565b8210610710576040517f08c379a000000000000000000000000000000000000000000000000000000000815260040161070790612b35565b60405180910390fd5b6008828154811061072457610723612b55565b5b90600052602060002001549050919050565b60008061074283610fad565b9050600073ffffffffffffffffffffffffffffffffffffffff168173ffffffffffffffffffffffffffffffffffffffff16036107b3576040517f08c379a00000000000000000000000000000000000000000000000000000000081526004016107aa90612bd0565b60405180910390fd5b80915050919050565b60008073ffffffffffffffffffffffffffffffffffffffff168273ffffffffffffffffffffffffffffffffffffffff160361082c576040517f08c379a000000000000000000000000000000000000000000000000000000000815260040161082390612c62565b60405180910390fd5b600360008373ffffffffffffffffffffffffffffffffffffffff1673ffffffffffffffffffffffffffffffffffffffff168152602001908152602001600020549050919050565b6060600180546108829061284a565b80601f01602080910402602001604051908101604052809291908181526020018280546108ae9061284a565b80156108fb5780601f106108d0576101008083540402835291602001916108fb565b820191906000526020600020905b8154815290600101906020018083116108de57829003601f168201915b5050505050905090565b610917610910610b5e565b8383610fea565b5050565b61092c610926610b5e565b83610c1f565b61096b576040517f08c379a000000000000000000000000000000000000000000000000000000000815260040161096290612a11565b60405180910390fd5b61097784848484611156565b50505050565b6060610988826111b2565b9050919050565b600061099b600b6112c4565b9050600c548111156109e2576040517f08c379a00000000000000000000000000000000000000000000000000000000081526004016109d990612cf4565b60405180910390fd5b6109ec600b6112d2565b6109f683826112e8565b610a008183611306565b505050565b6000600560008473ffffffffffffffffffffffffffffffffffffffff1673ffffffffffffffffffffffffffffffffffffffff16815260200190815260200160002060008373ffffffffffffffffffffffffffffffffffffffff1673ffffffffffffffffffffffffffffffffffffffff16815260200190815260200160002060009054906101000a900460ff16905092915050565b60007f780e9d63000000000000000000000000000000000000000000000000000000007bffffffffffffffffffffffffffffffffffffffffffffffffffffffff1916827bffffffffffffffffffffffffffffffffffffffffffffffffffffffff19161480610b0c5750610b0b82611373565b5b9050919050565b610b1c81611455565b610b5b576040517f08c379a0000000000000000000000000000000000000000000000000000000008152600401610b5290612bd0565b60405180910390fd5b50565b600033905090565b816004600083815260200190815260200160002060006101000a81548173ffffffffffffffffffffffffffffffffffffffff021916908373ffffffffffffffffffffffffffffffffffffffff160217905550808273ffffffffffffffffffffffffffffffffffffffff16610bd983610736565b73ffffffffffffffffffffffffffffffffffffffff167f8c5be1e5ebec7d5bd14f71427d1e84f3dd0314c0f7b2291e5b200ac8c7c3b92560405160405180910390a45050565b600080610c2b83610736565b90508073ffffffffffffffffffffffffffffffffffffffff168473ffffffffffffffffffffffffffffffffffffffff161480610c6d5750610c6c8185610a05565b5b80610cab57508373ffffffffffffffffffffffffffffffffffffffff16610c9384610436565b73ffffffffffffffffffffffffffffffffffffffff16145b91505092915050565b8273ffffffffffffffffffffffffffffffffffffffff16610cd482610736565b73ffffffffffffffffffffffffffffffffffffffff1614610d2a576040517f08c379a0000000000000000000000000000000000000000000000000000000008152600401610d2190612d86565b60405180910390fd5b600073ffffffffffffffffffffffffffffffffffffffff168273ffffffffffffffffffffffffffffffffffffffff1603610d99576040517f08c379a0000000000000000000000000000000000000000000000000000000008152600401610d9090612e18565b60405180910390fd5b610da68383836001611496565b8273ffffffffffffffffffffffffffffffffffffffff16610dc682610736565b73ffffffffffffffffffffffffffffffffffffffff1614610e1c576040517f08c379a0000000000000000000000000000000000000000000000000000000008152600401610e1390612d86565b60405180910390fd5b6004600082815260200190815260200160002060006101000a81549073ffffffffffffffffffffffffffffffffffffffff02191690556001600360008573ffffffffffffffffffffffffffffffffffffffff1673ffffffffffffffffffffffffffffffffffffffff168152602001908152602001600020600082825403925050819055506001600360008473ffffffffffffffffffffffffffffffffffffffff1673ffffffffffffffffffffffffffffffffffffffff16815260200190815260200160002060008282540192505081905550816002600083815260200190815260200160002060006101000a81548173ffffffffffffffffffffffffffffffffffffffff021916908373ffffffffffffffffffffffffffffffffffffffff160217905550808273ffffffffffffffffffffffffffffffffffffffff168473ffffffffffffffffffffffffffffffffffffffff167fddf252ad1be2c89b69c2b068fc378daa952ba7f163c4a11628f55a4df523b3ef60405160405180910390a4610fa883838360016114a8565b505050565b60006002600083815260200190815260200160002060009054906101000a900473ffffffffffffffffffffffffffffffffffffffff169050919050565b8173ffffffffffffffffffffffffffffffffffffffff168373ffffffffffffffffffffffffffffffffffffffff1603611058576040517f08c379a000000000000000000000000000000000000000000000000000000000815260040161104f90612e84565b60405180910390fd5b80600560008573ffffffffffffffffffffffffffffffffffffffff1673ffffffffffffffffffffffffffffffffffffffff16815260200190815260200160002060008473ffffffffffffffffffffffffffffffffffffffff1673ffffffffffffffffffffffffffffffffffffffff16815260200190815260200160002060006101000a81548160ff0219169083151502179055508173ffffffffffffffffffffffffffffffffffffffff168373ffffffffffffffffffffffffffffffffffffffff167f17307eab39ab6107e8899845ad3d59bd9653f200f220920489ca2b5937696c31836040516111499190612218565b60405180910390a3505050565b611161848484610cb4565b61116d848484846114ae565b6111ac576040517f08c379a00000000000000000000000000000000000000000000000000000000081526004016111a390612f16565b60405180910390fd5b50505050565b60606111bd82610b13565b6000600a600084815260200190815260200160002080546111dd9061284a565b80601f01602080910402602001604051908101604052809291908181526020018280546112099061284a565b80156112565780601f1061122b57610100808354040283529160200191611256565b820191906000526020600020905b81548152906001019060200180831161123957829003601f168201915b505050505090506000611267611635565b9050600081510361127c5781925050506112bf565b6000825111156112b1578082604051602001611299929190612f72565b604051602081830303815290604052925050506112bf565b6112ba8461164c565b925050505b919050565b600081600001549050919050565b6001816000016000828254019250508190555050565b6113028282604051806020016040528060008152506116b4565b5050565b61130f82611455565b61134e576040517f08c379a000000000000000000000000000000000000000000000000000000000815260040161134590613008565b60405180910390fd5b80600a6000848152602001908152602001600020908161136e91906131d4565b505050565b60007f80ac58cd000000000000000000000000000000000000000000000000000000007bffffffffffffffffffffffffffffffffffffffffffffffffffffffff1916827bffffffffffffffffffffffffffffffffffffffffffffffffffffffff1916148061143e57507f5b5e139f000000000000000000000000000000000000000000000000000000007bffffffffffffffffffffffffffffffffffffffffffffffffffffffff1916827bffffffffffffffffffffffffffffffffffffffffffffffffffffffff1916145b8061144e575061144d8261170f565b5b9050919050565b60008073ffffffffffffffffffffffffffffffffffffffff1661147783610fad565b73ffffffffffffffffffffffffffffffffffffffff1614159050919050565b6114a284848484611779565b50505050565b50505050565b60006114cf8473ffffffffffffffffffffffffffffffffffffffff166118d7565b15611628578373ffffffffffffffffffffffffffffffffffffffff1663150b7a026114f8610b5e565b8786866040518563ffffffff1660e01b815260040161151a94939291906132fb565b6020604051808303816000875af192505050801561155657506040513d601f19601f82011682018060405250810190611553919061335c565b60015b6115d8573d8060008114611586576040519150601f19603f3d011682016040523d82523d6000602084013e61158b565b606091505b5060008151036115d0576040517f08c379a00000000000000000000000000000000000000000000000000000000081526004016115c790612f16565b60405180910390fd5b805181602001fd5b63150b7a0260e01b7bffffffffffffffffffffffffffffffffffffffffffffffffffffffff1916817bffffffffffffffffffffffffffffffffffffffffffffffffffffffff19161491505061162d565b600190505b949350505050565b606060405180602001604052806000815250905090565b606061165782610b13565b6000611661611635565b9050600081511161168157604051806020016040528060008152506116ac565b8061168b846118fa565b60405160200161169c929190612f72565b6040516020818303038152906040525b915050919050565b6116be83836119c8565b6116cb60008484846114ae565b61170a576040517f08c379a000000000000000000000000000000000000000000000000000000000815260040161170190612f16565b60405180910390fd5b505050565b60007f01ffc9a7000000000000000000000000000000000000000000000000000000007bffffffffffffffffffffffffffffffffffffffffffffffffffffffff1916827bffffffffffffffffffffffffffffffffffffffffffffffffffffffff1916149050919050565b61178584848484611be5565b60018111156117c9576040517f08c379a00000000000000000000000000000000000000000000000000000000081526004016117c0906133fb565b60405180910390fd5b6000829050600073ffffffffffffffffffffffffffffffffffffffff168573ffffffffffffffffffffffffffffffffffffffff16036118105761180b81611d0b565b61184f565b8373ffffffffffffffffffffffffffffffffffffffff168573ffffffffffffffffffffffffffffffffffffffff161461184e5761184d8582611d54565b5b5b600073ffffffffffffffffffffffffffffffffffffffff168473ffffffffffffffffffffffffffffffffffffffff16036118915761188c81611ec1565b6118d0565b8473ffffffffffffffffffffffffffffffffffffffff168473ffffffffffffffffffffffffffffffffffffffff16146118cf576118ce8482611f92565b5b5b5050505050565b6000808273ffffffffffffffffffffffffffffffffffffffff163b119050919050565b60606000600161190984612011565b01905060008167ffffffffffffffff81111561192857611927612530565b5b6040519080825280601f01601f19166020018201604052801561195a5781602001600182028036833780820191505090505b509050600082602001820190505b6001156119bd578080600190039150507f3031323334353637383961626364656600000000000000000000000000000000600a86061a8153600a85816119b1576119b061341b565b5b04945060008503611968575b819350505050919050565b600073ffffffffffffffffffffffffffffffffffffffff168273ffffffffffffffffffffffffffffffffffffffff1603611a37576040517f08c379a0000000000000000000000000000000000000000000000000000000008152600401611a2e90613496565b60405180910390fd5b611a4081611455565b15611a80576040517f08c379a0000000000000000000000000000000000000000000000000000000008152600401611a7790613502565b60405180910390fd5b611a8e600083836001611496565b611a9781611455565b15611ad7576040517f08c379a0000000000000000000000000000000000000000000000000000000008152600401611ace90613502565b60405180910390fd5b6001600360008473ffffffffffffffffffffffffffffffffffffffff1673ffffffffffffffffffffffffffffffffffffffff16815260200190815260200160002060008282540192505081905550816002600083815260200190815260200160002060006101000a81548173ffffffffffffffffffffffffffffffffffffffff021916908373ffffffffffffffffffffffffffffffffffffffff160217905550808273ffffffffffffffffffffffffffffffffffffffff16600073ffffffffffffffffffffffffffffffffffffffff167fddf252ad1be2c89b69c2b068fc378daa952ba7f163c4a11628f55a4df523b3ef60405160405180910390a4611be16000838360016114a8565b5050565b6001811115611d0557600073ffffffffffffffffffffffffffffffffffffffff168473ffffffffffffffffffffffffffffffffffffffff1614611c795780600360008673ffffffffffffffffffffffffffffffffffffffff1673ffffffffffffffffffffffffffffffffffffffff1681526020019081526020016000206000828254611c719190613551565b925050819055505b600073ffffffffffffffffffffffffffffffffffffffff168373ffffffffffffffffffffffffffffffffffffffff1614611d045780600360008573ffffffffffffffffffffffffffffffffffffffff1673ffffffffffffffffffffffffffffffffffffffff1681526020019081526020016000206000828254611cfc9190613585565b925050819055505b5b50505050565b6008805490506009600083815260200190815260200160002081905550600881908060018154018082558091505060019003906000526020600020016000909190919091505550565b60006001611d61846107bc565b611d6b9190613551565b9050600060076000848152602001908152602001600020549050818114611e50576000600660008673ffffffffffffffffffffffffffffffffffffffff1673ffffffffffffffffffffffffffffffffffffffff168152602001908152602001600020600084815260200190815260200160002054905080600660008773ffffffffffffffffffffffffffffffffffffffff1673ffffffffffffffffffffffffffffffffffffffff168152602001908152602001600020600084815260200190815260200160002081905550816007600083815260200190815260200160002081905550505b6007600084815260200190815260200160002060009055600660008573ffffffffffffffffffffffffffffffffffffffff1673ffffffffffffffffffffffffffffffffffffffff16815260200190815260200160002060008381526020019081526020016000206000905550505050565b60006001600880549050611ed59190613551565b9050600060096000848152602001908152602001600020549050600060088381548110611f0557611f04612b55565b5b906000526020600020015490508060088381548110611f2757611f26612b55565b5b906000526020600020018190555081600960008381526020019081526020016000208190555060096000858152602001908152602001600020600090556008805480611f7657611f756135b9565b5b6001900381819060005260206000200160009055905550505050565b6000611f9d836107bc565b905081600660008573ffffffffffffffffffffffffffffffffffffffff1673ffffffffffffffffffffffffffffffffffffffff168152602001908152602001600020600083815260200190815260200160002081905550806007600084815260200190815260200160002081905550505050565b600080600090507a184f03e93ff9f4daa797ed6e38ed64bf6a1f010000000000000000831061206f577a184f03e93ff9f4daa797ed6e38ed64bf6a1f01000000000000000083816120655761206461341b565b5b0492506040810190505b6d04ee2d6d415b85acef810000000083106120ac576d04ee2d6d415b85acef810000000083816120a2576120a161341b565b5b0492506020810190505b662386f26fc1000083106120db57662386f26fc1000083816120d1576120d061341b565b5b0492506010810190505b6305f5e1008310612104576305f5e10083816120fa576120f961341b565b5b0492506008810190505b612710831061212957612710838161211f5761211e61341b565b5b0492506004810190505b6064831061214c57606483816121425761214161341b565b5b0492506002810190505b600a831061215b576001810190505b80915050919050565b6000604051905090565b600080fd5b600080fd5b60007fffffffff0000000000000000000000000000000000000000000000000000000082169050919050565b6121ad81612178565b81146121b857600080fd5b50565b6000813590506121ca816121a4565b92915050565b6000602082840312156121e6576121e561216e565b5b60006121f4848285016121bb565b91505092915050565b60008115159050919050565b612212816121fd565b82525050565b600060208201905061222d6000830184612209565b92915050565b600081519050919050565b600082825260208201905092915050565b60005b8381101561226d578082015181840152602081019050612252565b60008484015250505050565b6000601f19601f8301169050919050565b600061229582612233565b61229f818561223e565b93506122af81856020860161224f565b6122b881612279565b840191505092915050565b600060208201905081810360008301526122dd818461228a565b905092915050565b6000819050919050565b6122f8816122e5565b811461230357600080fd5b50565b600081359050612315816122ef565b92915050565b6000602082840312156123315761233061216e565b5b600061233f84828501612306565b91505092915050565b600073ffffffffffffffffffffffffffffffffffffffff82169050919050565b600061237382612348565b9050919050565b61238381612368565b82525050565b600060208201905061239e600083018461237a565b92915050565b6123ad81612368565b81146123b857600080fd5b50565b6000813590506123ca816123a4565b92915050565b600080604083850312156123e7576123e661216e565b5b60006123f5858286016123bb565b925050602061240685828601612306565b9150509250929050565b612419816122e5565b82525050565b60006020820190506124346000830184612410565b92915050565b6000806000606084860312156124535761245261216e565b5b6000612461868287016123bb565b9350506020612472868287016123bb565b925050604061248386828701612306565b9150509250925092565b6000602082840312156124a3576124a261216e565b5b60006124b1848285016123bb565b91505092915050565b6124c3816121fd565b81146124ce57600080fd5b50565b6000813590506124e0816124ba565b92915050565b600080604083850312156124fd576124fc61216e565b5b600061250b858286016123bb565b925050602061251c858286016124d1565b9150509250929050565b600080fd5b600080fd5b7f4e487b7100000000000000000000000000000000000000000000000000000000600052604160045260246000fd5b61256882612279565b810181811067ffffffffffffffff8211171561258757612586612530565b5b80604052505050565b600061259a612164565b90506125a6828261255f565b919050565b600067ffffffffffffffff8211156125c6576125c5612530565b5b6125cf82612279565b9050602081019050919050565b82818337600083830152505050565b60006125fe6125f9846125ab565b612590565b90508281526020810184848401111561261a5761261961252b565b5b6126258482856125dc565b509392505050565b600082601f83011261264257612641612526565b5b81356126528482602086016125eb565b91505092915050565b600080600080608085870312156126755761267461216e565b5b6000612683878288016123bb565b9450506020612694878288016123bb565b93505060406126a587828801612306565b925050606085013567ffffffffffffffff8111156126c6576126c5612173565b5b6126d28782880161262d565b91505092959194509250565b600067ffffffffffffffff8211156126f9576126f8612530565b5b61270282612279565b9050602081019050919050565b600061272261271d846126de565b612590565b90508281526020810184848401111561273e5761273d61252b565b5b6127498482856125dc565b509392505050565b600082601f83011261276657612765612526565b5b813561277684826020860161270f565b91505092915050565b600080604083850312156127965761279561216e565b5b60006127a4858286016123bb565b925050602083013567ffffffffffffffff8111156127c5576127c4612173565b5b6127d185828601612751565b9150509250929050565b600080604083850312156127f2576127f161216e565b5b6000612800858286016123bb565b9250506020612811858286016123bb565b9150509250929050565b7f4e487b7100000000000000000000000000000000000000000000000000000000600052602260045260246000fd5b6000600282049050600182168061286257607f821691505b6020821081036128755761287461281b565b5b50919050565b7f4552433732313a20617070726f76616c20746f2063757272656e74206f776e6560008201527f7200000000000000000000000000000000000000000000000000000000000000602082015250565b60006128d760218361223e565b91506128e28261287b565b604082019050919050565b60006020820190508181036000830152612906816128ca565b9050919050565b7f4552433732313a20617070726f76652063616c6c6572206973206e6f7420746f60008201527f6b656e206f776e6572206f7220617070726f76656420666f7220616c6c000000602082015250565b6000612969603d8361223e565b91506129748261290d565b604082019050919050565b600060208201905081810360008301526129988161295c565b9050919050565b7f4552433732313a2063616c6c6572206973206e6f7420746f6b656e206f776e6560008201527f72206f7220617070726f76656400000000000000000000000000000000000000602082015250565b60006129fb602d8361223e565b9150612a068261299f565b604082019050919050565b60006020820190508181036000830152612a2a816129ee565b9050919050565b7f455243373231456e756d657261626c653a206f776e657220696e646578206f7560008201527f74206f6620626f756e6473000000000000000000000000000000000000000000602082015250565b6000612a8d602b8361223e565b9150612a9882612a31565b604082019050919050565b60006020820190508181036000830152612abc81612a80565b9050919050565b7f455243373231456e756d657261626c653a20676c6f62616c20696e646578206f60008201527f7574206f6620626f756e64730000000000000000000000000000000000000000602082015250565b6000612b1f602c8361223e565b9150612b2a82612ac3565b604082019050919050565b60006020820190508181036000830152612b4e81612b12565b9050919050565b7f4e487b7100000000000000000000000000000000000000000000000000000000600052603260045260246000fd5b7f4552433732313a20696e76616c696420746f6b656e2049440000000000000000600082015250565b6000612bba60188361223e565b9150612bc582612b84565b602082019050919050565b60006020820190508181036000830152612be981612bad565b9050919050565b7f4552433732313a2061646472657373207a65726f206973206e6f74206120766160008201527f6c6964206f776e65720000000000000000000000000000000000000000000000602082015250565b6000612c4c60298361223e565b9150612c5782612bf0565b604082019050919050565b60006020820190508181036000830152612c7b81612c3f565b9050919050565b7f416c6c204e46542061726520636c61696d656420616e64206d696e7465642c2060008201527f736f20736f727279210000000000000000000000000000000000000000000000602082015250565b6000612cde60298361223e565b9150612ce982612c82565b604082019050919050565b60006020820190508181036000830152612d0d81612cd1565b9050919050565b7f4552433732313a207472616e736665722066726f6d20696e636f72726563742060008201527f6f776e6572000000000000000000000000000000000000000000000000000000602082015250565b6000612d7060258361223e565b9150612d7b82612d14565b604082019050919050565b60006020820190508181036000830152612d9f81612d63565b9050919050565b7f4552433732313a207472616e7366657220746f20746865207a65726f2061646460008201527f7265737300000000000000000000000000000000000000000000000000000000602082015250565b6000612e0260248361223e565b9150612e0d82612da6565b604082019050919050565b60006020820190508181036000830152612e3181612df5565b9050919050565b7f4552433732313a20617070726f766520746f2063616c6c657200000000000000600082015250565b6000612e6e60198361223e565b9150612e7982612e38565b602082019050919050565b60006020820190508181036000830152612e9d81612e61565b9050919050565b7f4552433732313a207472616e7366657220746f206e6f6e20455243373231526560008201527f63656976657220696d706c656d656e7465720000000000000000000000000000602082015250565b6000612f0060328361223e565b9150612f0b82612ea4565b604082019050919050565b60006020820190508181036000830152612f2f81612ef3565b9050919050565b600081905092915050565b6000612f4c82612233565b612f568185612f36565b9350612f6681856020860161224f565b80840191505092915050565b6000612f7e8285612f41565b9150612f8a8284612f41565b91508190509392505050565b7f45524337323155524953746f726167653a2055524920736574206f66206e6f6e60008201527f6578697374656e7420746f6b656e000000000000000000000000000000000000602082015250565b6000612ff2602e8361223e565b9150612ffd82612f96565b604082019050919050565b6000602082019050818103600083015261302181612fe5565b9050919050565b60008190508160005260206000209050919050565b60006020601f8301049050919050565b600082821b905092915050565b60006008830261308a7fffffffffffffffffffffffffffffffffffffffffffffffffffffffffffffffff8261304d565b613094868361304d565b95508019841693508086168417925050509392505050565b6000819050919050565b60006130d16130cc6130c7846122e5565b6130ac565b6122e5565b9050919050565b6000819050919050565b6130eb836130b6565b6130ff6130f7826130d8565b84845461305a565b825550505050565b600090565b613114613107565b61311f8184846130e2565b505050565b5b818110156131435761313860008261310c565b600181019050613125565b5050565b601f8211156131885761315981613028565b6131628461303d565b81016020851015613171578190505b61318561317d8561303d565b830182613124565b50505b505050565b600082821c905092915050565b60006131ab6000198460080261318d565b1980831691505092915050565b60006131c4838361319a565b9150826002028217905092915050565b6131dd82612233565b67ffffffffffffffff8111156131f6576131f5612530565b5b613200825461284a565b61320b828285613147565b600060209050601f83116001811461323e576000841561322c578287015190505b61323685826131b8565b86555061329e565b601f19841661324c86613028565b60005b828110156132745784890151825560018201915060208501945060208101905061324f565b86831015613291578489015161328d601f89168261319a565b8355505b6001600288020188555050505b505050505050565b600081519050919050565b600082825260208201905092915050565b60006132cd826132a6565b6132d781856132b1565b93506132e781856020860161224f565b6132f081612279565b840191505092915050565b6000608082019050613310600083018761237a565b61331d602083018661237a565b61332a6040830185612410565b818103606083015261333c81846132c2565b905095945050505050565b600081519050613356816121a4565b92915050565b6000602082840312156133725761337161216e565b5b600061338084828501613347565b91505092915050565b7f455243373231456e756d657261626c653a20636f6e736563757469766520747260008201527f616e7366657273206e6f7420737570706f727465640000000000000000000000602082015250565b60006133e560358361223e565b91506133f082613389565b604082019050919050565b60006020820190508181036000830152613414816133d8565b9050919050565b7f4e487b7100000000000000000000000000000000000000000000000000000000600052601260045260246000fd5b7f4552433732313a206d696e7420746f20746865207a65726f2061646472657373600082015250565b600061348060208361223e565b915061348b8261344a565b602082019050919050565b600060208201905081810360008301526134af81613473565b9050919050565b7f4552433732313a20746f6b656e20616c7265616479206d696e74656400000000600082015250565b60006134ec601c8361223e565b91506134f7826134b6565b602082019050919050565b6000602082019050818103600083015261351b816134df565b9050919050565b7f4e487b7100000000000000000000000000000000000000000000000000000000600052601160045260246000fd5b600061355c826122e5565b9150613567836122e5565b925082820390508181111561357f5761357e613522565b5b92915050565b6000613590826122e5565b915061359b836122e5565b92508282019050808211156135b3576135b2613522565b5b92915050565b7f4e487b7100000000000000000000000000000000000000000000000000000000600052603160045260246000fdfea2646970667358221220602682a714d05fbf8ed9cb3dfcfceb389c332fef71bcf5912c464d61c51ac49f64736f6c63430008120033",
			"opcodes": "PUSH1 0x80 PUSH1 0x40 MSTORE PUSH1 0xC8 PUSH1 0xC SSTORE CALLVALUE DUP1 ISZERO PUSH3 0x16 JUMPI PUSH1 0x0 DUP1 REVERT JUMPDEST POP PUSH1 0x40 MLOAD DUP1 PUSH1 0x40 ADD PUSH1 0x40 MSTORE DUP1 PUSH1 0x7 DUP2 MSTORE PUSH1 0x20 ADD PUSH32 0x4861636B4A4D4900000000000000000000000000000000000000000000000000 DUP2 MSTORE POP PUSH1 0x40 MLOAD DUP1 PUSH1 0x40 ADD PUSH1 0x40 MSTORE DUP1 PUSH1 0x3 DUP2 MSTORE PUSH1 0x20 ADD PUSH32 0x4A4D490000000000000000000000000000000000000000000000000000000000 DUP2 MSTORE POP DUP2 PUSH1 0x0 SWAP1 DUP2 PUSH3 0x94 SWAP2 SWAP1 PUSH3 0x329 JUMP JUMPDEST POP DUP1 PUSH1 0x1 SWAP1 DUP2 PUSH3 0xA6 SWAP2 SWAP1 PUSH3 0x329 JUMP JUMPDEST POP POP POP PUSH3 0x410 JUMP JUMPDEST PUSH1 0x0 DUP2 MLOAD SWAP1 POP SWAP2 SWAP1 POP JUMP JUMPDEST PUSH32 0x4E487B7100000000000000000000000000000000000000000000000000000000 PUSH1 0x0 MSTORE PUSH1 0x41 PUSH1 0x4 MSTORE PUSH1 0x24 PUSH1 0x0 REVERT JUMPDEST PUSH32 0x4E487B7100000000000000000000000000000000000000000000000000000000 PUSH1 0x0 MSTORE PUSH1 0x22 PUSH1 0x4 MSTORE PUSH1 0x24 PUSH1 0x0 REVERT JUMPDEST PUSH1 0x0 PUSH1 0x2 DUP3 DIV SWAP1 POP PUSH1 0x1 DUP3 AND DUP1 PUSH3 0x131 JUMPI PUSH1 0x7F DUP3 AND SWAP2 POP JUMPDEST PUSH1 0x20 DUP3 LT DUP2 SUB PUSH3 0x147 JUMPI PUSH3 0x146 PUSH3 0xE9 JUMP JUMPDEST JUMPDEST POP SWAP2 SWAP1 POP JUMP JUMPDEST PUSH1 0x0 DUP2 SWAP1 POP DUP2 PUSH1 0x0 MSTORE PUSH1 0x20 PUSH1 0x0 KECCAK256 SWAP1 POP SWAP2 SWAP1 POP JUMP JUMPDEST PUSH1 0x0 PUSH1 0x20 PUSH1 0x1F DUP4 ADD DIV SWAP1 POP SWAP2 SWAP1 POP JUMP JUMPDEST PUSH1 0x0 DUP3 DUP3 SHL SWAP1 POP SWAP3 SWAP2 POP POP JUMP JUMPDEST PUSH1 0x0 PUSH1 0x8 DUP4 MUL PUSH3 0x1B1 PUSH32 0xFFFFFFFFFFFFFFFFFFFFFFFFFFFFFFFFFFFFFFFFFFFFFFFFFFFFFFFFFFFFFFFF DUP3 PUSH3 0x172 JUMP JUMPDEST PUSH3 0x1BD DUP7 DUP4 PUSH3 0x172 JUMP JUMPDEST SWAP6 POP DUP1 NOT DUP5 AND SWAP4 POP DUP1 DUP7 AND DUP5 OR SWAP3 POP POP POP SWAP4 SWAP3 POP POP POP JUMP JUMPDEST PUSH1 0x0 DUP2 SWAP1 POP SWAP2 SWAP1 POP JUMP JUMPDEST PUSH1 0x0 DUP2 SWAP1 POP SWAP2 SWAP1 POP JUMP JUMPDEST PUSH1 0x0 PUSH3 0x20A PUSH3 0x204 PUSH3 0x1FE DUP5 PUSH3 0x1D5 JUMP JUMPDEST PUSH3 0x1DF JUMP JUMPDEST PUSH3 0x1D5 JUMP JUMPDEST SWAP1 POP SWAP2 SWAP1 POP JUMP JUMPDEST PUSH1 0x0 DUP2 SWAP1 POP SWAP2 SWAP1 POP JUMP JUMPDEST PUSH3 0x226 DUP4 PUSH3 0x1E9 JUMP JUMPDEST PUSH3 0x23E PUSH3 0x235 DUP3 PUSH3 0x211 JUMP JUMPDEST DUP5 DUP5 SLOAD PUSH3 0x17F JUMP JUMPDEST DUP3 SSTORE POP POP POP POP JUMP JUMPDEST PUSH1 0x0 SWAP1 JUMP JUMPDEST PUSH3 0x255 PUSH3 0x246 JUMP JUMPDEST PUSH3 0x262 DUP2 DUP5 DUP5 PUSH3 0x21B JUMP JUMPDEST POP POP POP JUMP JUMPDEST JUMPDEST DUP2 DUP2 LT ISZERO PUSH3 0x28A JUMPI PUSH3 0x27E PUSH1 0x0 DUP3 PUSH3 0x24B JUMP JUMPDEST PUSH1 0x1 DUP2 ADD SWAP1 POP PUSH3 0x268 JUMP JUMPDEST POP POP JUMP JUMPDEST PUSH1 0x1F DUP3 GT ISZERO PUSH3 0x2D9 JUMPI PUSH3 0x2A3 DUP2 PUSH3 0x14D JUMP JUMPDEST PUSH3 0x2AE DUP5 PUSH3 0x162 JUMP JUMPDEST DUP2 ADD PUSH1 0x20 DUP6 LT ISZERO PUSH3 0x2BE JUMPI DUP2 SWAP1 POP JUMPDEST PUSH3 0x2D6 PUSH3 0x2CD DUP6 PUSH3 0x162 JUMP JUMPDEST DUP4 ADD DUP3 PUSH3 0x267 JUMP JUMPDEST POP POP JUMPDEST POP POP POP JUMP JUMPDEST PUSH1 0x0 DUP3 DUP3 SHR SWAP1 POP SWAP3 SWAP2 POP POP JUMP JUMPDEST PUSH1 0x0 PUSH3 0x2FE PUSH1 0x0 NOT DUP5 PUSH1 0x8 MUL PUSH3 0x2DE JUMP JUMPDEST NOT DUP1 DUP4 AND SWAP2 POP POP SWAP3 SWAP2 POP POP JUMP JUMPDEST PUSH1 0x0 PUSH3 0x319 DUP4 DUP4 PUSH3 0x2EB JUMP JUMPDEST SWAP2 POP DUP3 PUSH1 0x2 MUL DUP3 OR SWAP1 POP SWAP3 SWAP2 POP POP JUMP JUMPDEST PUSH3 0x334 DUP3 PUSH3 0xAF JUMP JUMPDEST PUSH8 0xFFFFFFFFFFFFFFFF DUP2 GT ISZERO PUSH3 0x350 JUMPI PUSH3 0x34F PUSH3 0xBA JUMP JUMPDEST JUMPDEST PUSH3 0x35C DUP3 SLOAD PUSH3 0x118 JUMP JUMPDEST PUSH3 0x369 DUP3 DUP3 DUP6 PUSH3 0x28E JUMP JUMPDEST PUSH1 0x0 PUSH1 0x20 SWAP1 POP PUSH1 0x1F DUP4 GT PUSH1 0x1 DUP2 EQ PUSH3 0x3A1 JUMPI PUSH1 0x0 DUP5 ISZERO PUSH3 0x38C JUMPI DUP3 DUP8 ADD MLOAD SWAP1 POP JUMPDEST PUSH3 0x398 DUP6 DUP3 PUSH3 0x30B JUMP JUMPDEST DUP7 SSTORE POP PUSH3 0x408 JUMP JUMPDEST PUSH1 0x1F NOT DUP5 AND PUSH3 0x3B1 DUP7 PUSH3 0x14D JUMP JUMPDEST PUSH1 0x0 JUMPDEST DUP3 DUP2 LT ISZERO PUSH3 0x3DB JUMPI DUP5 DUP10 ADD MLOAD DUP3 SSTORE PUSH1 0x1 DUP3 ADD SWAP2 POP PUSH1 0x20 DUP6 ADD SWAP5 POP PUSH1 0x20 DUP2 ADD SWAP1 POP PUSH3 0x3B4 JUMP JUMPDEST DUP7 DUP4 LT ISZERO PUSH3 0x3FB JUMPI DUP5 DUP10 ADD MLOAD PUSH3 0x3F7 PUSH1 0x1F DUP10 AND DUP3 PUSH3 0x2EB JUMP JUMPDEST DUP4 SSTORE POP JUMPDEST PUSH1 0x1 PUSH1 0x2 DUP9 MUL ADD DUP9 SSTORE POP POP POP JUMPDEST POP POP POP POP POP POP JUMP JUMPDEST PUSH2 0x361E DUP1 PUSH3 0x420 PUSH1 0x0 CODECOPY PUSH1 0x0 RETURN INVALID PUSH1 0x80 PUSH1 0x40 MSTORE CALLVALUE DUP1 ISZERO PUSH2 0x10 JUMPI PUSH1 0x0 DUP1 REVERT JUMPDEST POP PUSH1 0x4 CALLDATASIZE LT PUSH2 0x10B JUMPI PUSH1 0x0 CALLDATALOAD PUSH1 0xE0 SHR DUP1 PUSH4 0x4F6CCCE7 GT PUSH2 0xA2 JUMPI DUP1 PUSH4 0xA22CB465 GT PUSH2 0x71 JUMPI DUP1 PUSH4 0xA22CB465 EQ PUSH2 0x2DE JUMPI DUP1 PUSH4 0xB88D4FDE EQ PUSH2 0x2FA JUMPI DUP1 PUSH4 0xC87B56DD EQ PUSH2 0x316 JUMPI DUP1 PUSH4 0xD204C45E EQ PUSH2 0x346 JUMPI DUP1 PUSH4 0xE985E9C5 EQ PUSH2 0x362 JUMPI PUSH2 0x10B JUMP JUMPDEST DUP1 PUSH4 0x4F6CCCE7 EQ PUSH2 0x230 JUMPI DUP1 PUSH4 0x6352211E EQ PUSH2 0x260 JUMPI DUP1 PUSH4 0x70A08231 EQ PUSH2 0x290 JUMPI DUP1 PUSH4 0x95D89B41 EQ PUSH2 0x2C0 JUMPI PUSH2 0x10B JUMP JUMPDEST DUP1 PUSH4 0x18160DDD GT PUSH2 0xDE JUMPI DUP1 PUSH4 0x18160DDD EQ PUSH2 0x1AA JUMPI DUP1 PUSH4 0x23B872DD EQ PUSH2 0x1C8 JUMPI DUP1 PUSH4 0x2F745C59 EQ PUSH2 0x1E4 JUMPI DUP1 PUSH4 0x42842E0E EQ PUSH2 0x214 JUMPI PUSH2 0x10B JUMP JUMPDEST DUP1 PUSH4 0x1FFC9A7 EQ PUSH2 0x110 JUMPI DUP1 PUSH4 0x6FDDE03 EQ PUSH2 0x140 JUMPI DUP1 PUSH4 0x81812FC EQ PUSH2 0x15E JUMPI DUP1 PUSH4 0x95EA7B3 EQ PUSH2 0x18E JUMPI JUMPDEST PUSH1 0x0 DUP1 REVERT JUMPDEST PUSH2 0x12A PUSH1 0x4 DUP1 CALLDATASIZE SUB DUP2 ADD SWAP1 PUSH2 0x125 SWAP2 SWAP1 PUSH2 0x21D0 JUMP JUMPDEST PUSH2 0x392 JUMP JUMPDEST PUSH1 0x40 MLOAD PUSH2 0x137 SWAP2 SWAP1 PUSH2 0x2218 JUMP JUMPDEST PUSH1 0x40 MLOAD DUP1 SWAP2 SUB SWAP1 RETURN JUMPDEST PUSH2 0x148 PUSH2 0x3A4 JUMP JUMPDEST PUSH1 0x40 MLOAD PUSH2 0x155 SWAP2 SWAP1 PUSH2 0x22C3 JUMP JUMPDEST PUSH1 0x40 MLOAD DUP1 SWAP2 SUB SWAP1 RETURN JUMPDEST PUSH2 0x178 PUSH1 0x4 DUP1 CALLDATASIZE SUB DUP2 ADD SWAP1 PUSH2 0x173 SWAP2 SWAP1 PUSH2 0x231B JUMP JUMPDEST PUSH2 0x436 JUMP JUMPDEST PUSH1 0x40 MLOAD PUSH2 0x185 SWAP2 SWAP1 PUSH2 0x2389 JUMP JUMPDEST PUSH1 0x40 MLOAD DUP1 SWAP2 SUB SWAP1 RETURN JUMPDEST PUSH2 0x1A8 PUSH1 0x4 DUP1 CALLDATASIZE SUB DUP2 ADD SWAP1 PUSH2 0x1A3 SWAP2 SWAP1 PUSH2 0x23D0 JUMP JUMPDEST PUSH2 0x47C JUMP JUMPDEST STOP JUMPDEST PUSH2 0x1B2 PUSH2 0x593 JUMP JUMPDEST PUSH1 0x40 MLOAD PUSH2 0x1BF SWAP2 SWAP1 PUSH2 0x241F JUMP JUMPDEST PUSH1 0x40 MLOAD DUP1 SWAP2 SUB SWAP1 RETURN JUMPDEST PUSH2 0x1E2 PUSH1 0x4 DUP1 CALLDATASIZE SUB DUP2 ADD SWAP1 PUSH2 0x1DD SWAP2 SWAP1 PUSH2 0x243A JUMP JUMPDEST PUSH2 0x5A0 JUMP JUMPDEST STOP JUMPDEST PUSH2 0x1FE PUSH1 0x4 DUP1 CALLDATASIZE SUB DUP2 ADD SWAP1 PUSH2 0x1F9 SWAP2 SWAP1 PUSH2 0x23D0 JUMP JUMPDEST PUSH2 0x600 JUMP JUMPDEST PUSH1 0x40 MLOAD PUSH2 0x20B SWAP2 SWAP1 PUSH2 0x241F JUMP JUMPDEST PUSH1 0x40 MLOAD DUP1 SWAP2 SUB SWAP1 RETURN JUMPDEST PUSH2 0x22E PUSH1 0x4 DUP1 CALLDATASIZE SUB DUP2 ADD SWAP1 PUSH2 0x229 SWAP2 SWAP1 PUSH2 0x243A JUMP JUMPDEST PUSH2 0x6A5 JUMP JUMPDEST STOP JUMPDEST PUSH2 0x24A PUSH1 0x4 DUP1 CALLDATASIZE SUB DUP2 ADD SWAP1 PUSH2 0x245 SWAP2 SWAP1 PUSH2 0x231B JUMP JUMPDEST PUSH2 0x6C5 JUMP JUMPDEST PUSH1 0x40 MLOAD PUSH2 0x257 SWAP2 SWAP1 PUSH2 0x241F JUMP JUMPDEST PUSH1 0x40 MLOAD DUP1 SWAP2 SUB SWAP1 RETURN JUMPDEST PUSH2 0x27A PUSH1 0x4 DUP1 CALLDATASIZE SUB DUP2 ADD SWAP1 PUSH2 0x275 SWAP2 SWAP1 PUSH2 0x231B JUMP JUMPDEST PUSH2 0x736 JUMP JUMPDEST PUSH1 0x40 MLOAD PUSH2 0x287 SWAP2 SWAP1 PUSH2 0x2389 JUMP JUMPDEST PUSH1 0x40 MLOAD DUP1 SWAP2 SUB SWAP1 RETURN JUMPDEST PUSH2 0x2AA PUSH1 0x4 DUP1 CALLDATASIZE SUB DUP2 ADD SWAP1 PUSH2 0x2A5 SWAP2 SWAP1 PUSH2 0x248D JUMP JUMPDEST PUSH2 0x7BC JUMP JUMPDEST PUSH1 0x40 MLOAD PUSH2 0x2B7 SWAP2 SWAP1 PUSH2 0x241F JUMP JUMPDEST PUSH1 0x40 MLOAD DUP1 SWAP2 SUB SWAP1 RETURN JUMPDEST PUSH2 0x2C8 PUSH2 0x873 JUMP JUMPDEST PUSH1 0x40 MLOAD PUSH2 0x2D5 SWAP2 SWAP1 PUSH2 0x22C3 JUMP JUMPDEST PUSH1 0x40 MLOAD DUP1 SWAP2 SUB SWAP1 RETURN JUMPDEST PUSH2 0x2F8 PUSH1 0x4 DUP1 CALLDATASIZE SUB DUP2 ADD SWAP1 PUSH2 0x2F3 SWAP2 SWAP1 PUSH2 0x24E6 JUMP JUMPDEST PUSH2 0x905 JUMP JUMPDEST STOP JUMPDEST PUSH2 0x314 PUSH1 0x4 DUP1 CALLDATASIZE SUB DUP2 ADD SWAP1 PUSH2 0x30F SWAP2 SWAP1 PUSH2 0x265B JUMP JUMPDEST PUSH2 0x91B JUMP JUMPDEST STOP JUMPDEST PUSH2 0x330 PUSH1 0x4 DUP1 CALLDATASIZE SUB DUP2 ADD SWAP1 PUSH2 0x32B SWAP2 SWAP1 PUSH2 0x231B JUMP JUMPDEST PUSH2 0x97D JUMP JUMPDEST PUSH1 0x40 MLOAD PUSH2 0x33D SWAP2 SWAP1 PUSH2 0x22C3 JUMP JUMPDEST PUSH1 0x40 MLOAD DUP1 SWAP2 SUB SWAP1 RETURN JUMPDEST PUSH2 0x360 PUSH1 0x4 DUP1 CALLDATASIZE SUB DUP2 ADD SWAP1 PUSH2 0x35B SWAP2 SWAP1 PUSH2 0x277F JUMP JUMPDEST PUSH2 0x98F JUMP JUMPDEST STOP JUMPDEST PUSH2 0x37C PUSH1 0x4 DUP1 CALLDATASIZE SUB DUP2 ADD SWAP1 PUSH2 0x377 SWAP2 SWAP1 PUSH2 0x27DB JUMP JUMPDEST PUSH2 0xA05 JUMP JUMPDEST PUSH1 0x40 MLOAD PUSH2 0x389 SWAP2 SWAP1 PUSH2 0x2218 JUMP JUMPDEST PUSH1 0x40 MLOAD DUP1 SWAP2 SUB SWAP1 RETURN JUMPDEST PUSH1 0x0 PUSH2 0x39D DUP3 PUSH2 0xA99 JUMP JUMPDEST SWAP1 POP SWAP2 SWAP1 POP JUMP JUMPDEST PUSH1 0x60 PUSH1 0x0 DUP1 SLOAD PUSH2 0x3B3 SWAP1 PUSH2 0x284A JUMP JUMPDEST DUP1 PUSH1 0x1F ADD PUSH1 0x20 DUP1 SWAP2 DIV MUL PUSH1 0x20 ADD PUSH1 0x40 MLOAD SWAP1 DUP2 ADD PUSH1 0x40 MSTORE DUP1 SWAP3 SWAP2 SWAP1 DUP2 DUP2 MSTORE PUSH1 0x20 ADD DUP3 DUP1 SLOAD PUSH2 0x3DF SWAP1 PUSH2 0x284A JUMP JUMPDEST DUP1 ISZERO PUSH2 0x42C JUMPI DUP1 PUSH1 0x1F LT PUSH2 0x401 JUMPI PUSH2 0x100 DUP1 DUP4 SLOAD DIV MUL DUP4 MSTORE SWAP2 PUSH1 0x20 ADD SWAP2 PUSH2 0x42C JUMP JUMPDEST DUP3 ADD SWAP2 SWAP1 PUSH1 0x0 MSTORE PUSH1 0x20 PUSH1 0x0 KECCAK256 SWAP1 JUMPDEST DUP2 SLOAD DUP2 MSTORE SWAP1 PUSH1 0x1 ADD SWAP1 PUSH1 0x20 ADD DUP1 DUP4 GT PUSH2 0x40F JUMPI DUP3 SWAP1 SUB PUSH1 0x1F AND DUP3 ADD SWAP2 JUMPDEST POP POP POP POP POP SWAP1 POP SWAP1 JUMP JUMPDEST PUSH1 0x0 PUSH2 0x441 DUP3 PUSH2 0xB13 JUMP JUMPDEST PUSH1 0x4 PUSH1 0x0 DUP4 DUP2 MSTORE PUSH1 0x20 ADD SWAP1 DUP2 MSTORE PUSH1 0x20 ADD PUSH1 0x0 KECCAK256 PUSH1 0x0 SWAP1 SLOAD SWAP1 PUSH2 0x100 EXP SWAP1 DIV PUSH20 0xFFFFFFFFFFFFFFFFFFFFFFFFFFFFFFFFFFFFFFFF AND SWAP1 POP SWAP2 SWAP1 POP JUMP JUMPDEST PUSH1 0x0 PUSH2 0x487 DUP3 PUSH2 0x736 JUMP JUMPDEST SWAP1 POP DUP1 PUSH20 0xFFFFFFFFFFFFFFFFFFFFFFFFFFFFFFFFFFFFFFFF AND DUP4 PUSH20 0xFFFFFFFFFFFFFFFFFFFFFFFFFFFFFFFFFFFFFFFF AND SUB PUSH2 0x4F7 JUMPI PUSH1 0x40 MLOAD PUSH32 0x8C379A000000000000000000000000000000000000000000000000000000000 DUP2 MSTORE PUSH1 0x4 ADD PUSH2 0x4EE SWAP1 PUSH2 0x28ED JUMP JUMPDEST PUSH1 0x40 MLOAD DUP1 SWAP2 SUB SWAP1 REVERT JUMPDEST DUP1 PUSH20 0xFFFFFFFFFFFFFFFFFFFFFFFFFFFFFFFFFFFFFFFF AND PUSH2 0x516 PUSH2 0xB5E JUMP JUMPDEST PUSH20 0xFFFFFFFFFFFFFFFFFFFFFFFFFFFFFFFFFFFFFFFF AND EQ DUP1 PUSH2 0x545 JUMPI POP PUSH2 0x544 DUP2 PUSH2 0x53F PUSH2 0xB5E JUMP JUMPDEST PUSH2 0xA05 JUMP JUMPDEST JUMPDEST PUSH2 0x584 JUMPI PUSH1 0x40 MLOAD PUSH32 0x8C379A000000000000000000000000000000000000000000000000000000000 DUP2 MSTORE PUSH1 0x4 ADD PUSH2 0x57B SWAP1 PUSH2 0x297F JUMP JUMPDEST PUSH1 0x40 MLOAD DUP1 SWAP2 SUB SWAP1 REVERT JUMPDEST PUSH2 0x58E DUP4 DUP4 PUSH2 0xB66 JUMP JUMPDEST POP POP POP JUMP JUMPDEST PUSH1 0x0 PUSH1 0x8 DUP1 SLOAD SWAP1 POP SWAP1 POP SWAP1 JUMP JUMPDEST PUSH2 0x5B1 PUSH2 0x5AB PUSH2 0xB5E JUMP JUMPDEST DUP3 PUSH2 0xC1F JUMP JUMPDEST PUSH2 0x5F0 JUMPI PUSH1 0x40 MLOAD PUSH32 0x8C379A000000000000000000000000000000000000000000000000000000000 DUP2 MSTORE PUSH1 0x4 ADD PUSH2 0x5E7 SWAP1 PUSH2 0x2A11 JUMP JUMPDEST PUSH1 0x40 MLOAD DUP1 SWAP2 SUB SWAP1 REVERT JUMPDEST PUSH2 0x5FB DUP4 DUP4 DUP4 PUSH2 0xCB4 JUMP JUMPDEST POP POP POP JUMP JUMPDEST PUSH1 0x0 PUSH2 0x60B DUP4 PUSH2 0x7BC JUMP JUMPDEST DUP3 LT PUSH2 0x64C JUMPI PUSH1 0x40 MLOAD PUSH32 0x8C379A000000000000000000000000000000000000000000000000000000000 DUP2 MSTORE PUSH1 0x4 ADD PUSH2 0x643 SWAP1 PUSH2 0x2AA3 JUMP JUMPDEST PUSH1 0x40 MLOAD DUP1 SWAP2 SUB SWAP1 REVERT JUMPDEST PUSH1 0x6 PUSH1 0x0 DUP5 PUSH20 0xFFFFFFFFFFFFFFFFFFFFFFFFFFFFFFFFFFFFFFFF AND PUSH20 0xFFFFFFFFFFFFFFFFFFFFFFFFFFFFFFFFFFFFFFFF AND DUP2 MSTORE PUSH1 0x20 ADD SWAP1 DUP2 MSTORE PUSH1 0x20 ADD PUSH1 0x0 KECCAK256 PUSH1 0x0 DUP4 DUP2 MSTORE PUSH1 0x20 ADD SWAP1 DUP2 MSTORE PUSH1 0x20 ADD PUSH1 0x0 KECCAK256 SLOAD SWAP1 POP SWAP3 SWAP2 POP POP JUMP JUMPDEST PUSH2 0x6C0 DUP4 DUP4 DUP4 PUSH1 0x40 MLOAD DUP1 PUSH1 0x20 ADD PUSH1 0x40 MSTORE DUP1 PUSH1 0x0 DUP2 MSTORE POP PUSH2 0x91B JUMP JUMPDEST POP POP POP JUMP JUMPDEST PUSH1 0x0 PUSH2 0x6CF PUSH2 0x593 JUMP JUMPDEST DUP3 LT PUSH2 0x710 JUMPI PUSH1 0x40 MLOAD PUSH32 0x8C379A000000000000000000000000000000000000000000000000000000000 DUP2 MSTORE PUSH1 0x4 ADD PUSH2 0x707 SWAP1 PUSH2 0x2B35 JUMP JUMPDEST PUSH1 0x40 MLOAD DUP1 SWAP2 SUB SWAP1 REVERT JUMPDEST PUSH1 0x8 DUP3 DUP2 SLOAD DUP2 LT PUSH2 0x724 JUMPI PUSH2 0x723 PUSH2 0x2B55 JUMP JUMPDEST JUMPDEST SWAP1 PUSH1 0x0 MSTORE PUSH1 0x20 PUSH1 0x0 KECCAK256 ADD SLOAD SWAP1 POP SWAP2 SWAP1 POP JUMP JUMPDEST PUSH1 0x0 DUP1 PUSH2 0x742 DUP4 PUSH2 0xFAD JUMP JUMPDEST SWAP1 POP PUSH1 0x0 PUSH20 0xFFFFFFFFFFFFFFFFFFFFFFFFFFFFFFFFFFFFFFFF AND DUP2 PUSH20 0xFFFFFFFFFFFFFFFFFFFFFFFFFFFFFFFFFFFFFFFF AND SUB PUSH2 0x7B3 JUMPI PUSH1 0x40 MLOAD PUSH32 0x8C379A000000000000000000000000000000000000000000000000000000000 DUP2 MSTORE PUSH1 0x4 ADD PUSH2 0x7AA SWAP1 PUSH2 0x2BD0 JUMP JUMPDEST PUSH1 0x40 MLOAD DUP1 SWAP2 SUB SWAP1 REVERT JUMPDEST DUP1 SWAP2 POP POP SWAP2 SWAP1 POP JUMP JUMPDEST PUSH1 0x0 DUP1 PUSH20 0xFFFFFFFFFFFFFFFFFFFFFFFFFFFFFFFFFFFFFFFF AND DUP3 PUSH20 0xFFFFFFFFFFFFFFFFFFFFFFFFFFFFFFFFFFFFFFFF AND SUB PUSH2 0x82C JUMPI PUSH1 0x40 MLOAD PUSH32 0x8C379A000000000000000000000000000000000000000000000000000000000 DUP2 MSTORE PUSH1 0x4 ADD PUSH2 0x823 SWAP1 PUSH2 0x2C62 JUMP JUMPDEST PUSH1 0x40 MLOAD DUP1 SWAP2 SUB SWAP1 REVERT JUMPDEST PUSH1 0x3 PUSH1 0x0 DUP4 PUSH20 0xFFFFFFFFFFFFFFFFFFFFFFFFFFFFFFFFFFFFFFFF AND PUSH20 0xFFFFFFFFFFFFFFFFFFFFFFFFFFFFFFFFFFFFFFFF AND DUP2 MSTORE PUSH1 0x20 ADD SWAP1 DUP2 MSTORE PUSH1 0x20 ADD PUSH1 0x0 KECCAK256 SLOAD SWAP1 POP SWAP2 SWAP1 POP JUMP JUMPDEST PUSH1 0x60 PUSH1 0x1 DUP1 SLOAD PUSH2 0x882 SWAP1 PUSH2 0x284A JUMP JUMPDEST DUP1 PUSH1 0x1F ADD PUSH1 0x20 DUP1 SWAP2 DIV MUL PUSH1 0x20 ADD PUSH1 0x40 MLOAD SWAP1 DUP2 ADD PUSH1 0x40 MSTORE DUP1 SWAP3 SWAP2 SWAP1 DUP2 DUP2 MSTORE PUSH1 0x20 ADD DUP3 DUP1 SLOAD PUSH2 0x8AE SWAP1 PUSH2 0x284A JUMP JUMPDEST DUP1 ISZERO PUSH2 0x8FB JUMPI DUP1 PUSH1 0x1F LT PUSH2 0x8D0 JUMPI PUSH2 0x100 DUP1 DUP4 SLOAD DIV MUL DUP4 MSTORE SWAP2 PUSH1 0x20 ADD SWAP2 PUSH2 0x8FB JUMP JUMPDEST DUP3 ADD SWAP2 SWAP1 PUSH1 0x0 MSTORE PUSH1 0x20 PUSH1 0x0 KECCAK256 SWAP1 JUMPDEST DUP2 SLOAD DUP2 MSTORE SWAP1 PUSH1 0x1 ADD SWAP1 PUSH1 0x20 ADD DUP1 DUP4 GT PUSH2 0x8DE JUMPI DUP3 SWAP1 SUB PUSH1 0x1F AND DUP3 ADD SWAP2 JUMPDEST POP POP POP POP POP SWAP1 POP SWAP1 JUMP JUMPDEST PUSH2 0x917 PUSH2 0x910 PUSH2 0xB5E JUMP JUMPDEST DUP4 DUP4 PUSH2 0xFEA JUMP JUMPDEST POP POP JUMP JUMPDEST PUSH2 0x92C PUSH2 0x926 PUSH2 0xB5E JUMP JUMPDEST DUP4 PUSH2 0xC1F JUMP JUMPDEST PUSH2 0x96B JUMPI PUSH1 0x40 MLOAD PUSH32 0x8C379A000000000000000000000000000000000000000000000000000000000 DUP2 MSTORE PUSH1 0x4 ADD PUSH2 0x962 SWAP1 PUSH2 0x2A11 JUMP JUMPDEST PUSH1 0x40 MLOAD DUP1 SWAP2 SUB SWAP1 REVERT JUMPDEST PUSH2 0x977 DUP5 DUP5 DUP5 DUP5 PUSH2 0x1156 JUMP JUMPDEST POP POP POP POP JUMP JUMPDEST PUSH1 0x60 PUSH2 0x988 DUP3 PUSH2 0x11B2 JUMP JUMPDEST SWAP1 POP SWAP2 SWAP1 POP JUMP JUMPDEST PUSH1 0x0 PUSH2 0x99B PUSH1 0xB PUSH2 0x12C4 JUMP JUMPDEST SWAP1 POP PUSH1 0xC SLOAD DUP2 GT ISZERO PUSH2 0x9E2 JUMPI PUSH1 0x40 MLOAD PUSH32 0x8C379A000000000000000000000000000000000000000000000000000000000 DUP2 MSTORE PUSH1 0x4 ADD PUSH2 0x9D9 SWAP1 PUSH2 0x2CF4 JUMP JUMPDEST PUSH1 0x40 MLOAD DUP1 SWAP2 SUB SWAP1 REVERT JUMPDEST PUSH2 0x9EC PUSH1 0xB PUSH2 0x12D2 JUMP JUMPDEST PUSH2 0x9F6 DUP4 DUP3 PUSH2 0x12E8 JUMP JUMPDEST PUSH2 0xA00 DUP2 DUP4 PUSH2 0x1306 JUMP JUMPDEST POP POP POP JUMP JUMPDEST PUSH1 0x0 PUSH1 0x5 PUSH1 0x0 DUP5 PUSH20 0xFFFFFFFFFFFFFFFFFFFFFFFFFFFFFFFFFFFFFFFF AND PUSH20 0xFFFFFFFFFFFFFFFFFFFFFFFFFFFFFFFFFFFFFFFF AND DUP2 MSTORE PUSH1 0x20 ADD SWAP1 DUP2 MSTORE PUSH1 0x20 ADD PUSH1 0x0 KECCAK256 PUSH1 0x0 DUP4 PUSH20 0xFFFFFFFFFFFFFFFFFFFFFFFFFFFFFFFFFFFFFFFF AND PUSH20 0xFFFFFFFFFFFFFFFFFFFFFFFFFFFFFFFFFFFFFFFF AND DUP2 MSTORE PUSH1 0x20 ADD SWAP1 DUP2 MSTORE PUSH1 0x20 ADD PUSH1 0x0 KECCAK256 PUSH1 0x0 SWAP1 SLOAD SWAP1 PUSH2 0x100 EXP SWAP1 DIV PUSH1 0xFF AND SWAP1 POP SWAP3 SWAP2 POP POP JUMP JUMPDEST PUSH1 0x0 PUSH32 0x780E9D6300000000000000000000000000000000000000000000000000000000 PUSH28 0xFFFFFFFFFFFFFFFFFFFFFFFFFFFFFFFFFFFFFFFFFFFFFFFFFFFFFFFF NOT AND DUP3 PUSH28 0xFFFFFFFFFFFFFFFFFFFFFFFFFFFFFFFFFFFFFFFFFFFFFFFFFFFFFFFF NOT AND EQ DUP1 PUSH2 0xB0C JUMPI POP PUSH2 0xB0B DUP3 PUSH2 0x1373 JUMP JUMPDEST JUMPDEST SWAP1 POP SWAP2 SWAP1 POP JUMP JUMPDEST PUSH2 0xB1C DUP2 PUSH2 0x1455 JUMP JUMPDEST PUSH2 0xB5B JUMPI PUSH1 0x40 MLOAD PUSH32 0x8C379A000000000000000000000000000000000000000000000000000000000 DUP2 MSTORE PUSH1 0x4 ADD PUSH2 0xB52 SWAP1 PUSH2 0x2BD0 JUMP JUMPDEST PUSH1 0x40 MLOAD DUP1 SWAP2 SUB SWAP1 REVERT JUMPDEST POP JUMP JUMPDEST PUSH1 0x0 CALLER SWAP1 POP SWAP1 JUMP JUMPDEST DUP2 PUSH1 0x4 PUSH1 0x0 DUP4 DUP2 MSTORE PUSH1 0x20 ADD SWAP1 DUP2 MSTORE PUSH1 0x20 ADD PUSH1 0x0 KECCAK256 PUSH1 0x0 PUSH2 0x100 EXP DUP2 SLOAD DUP2 PUSH20 0xFFFFFFFFFFFFFFFFFFFFFFFFFFFFFFFFFFFFFFFF MUL NOT AND SWAP1 DUP4 PUSH20 0xFFFFFFFFFFFFFFFFFFFFFFFFFFFFFFFFFFFFFFFF AND MUL OR SWAP1 SSTORE POP DUP1 DUP3 PUSH20 0xFFFFFFFFFFFFFFFFFFFFFFFFFFFFFFFFFFFFFFFF AND PUSH2 0xBD9 DUP4 PUSH2 0x736 JUMP JUMPDEST PUSH20 0xFFFFFFFFFFFFFFFFFFFFFFFFFFFFFFFFFFFFFFFF AND PUSH32 0x8C5BE1E5EBEC7D5BD14F71427D1E84F3DD0314C0F7B2291E5B200AC8C7C3B925 PUSH1 0x40 MLOAD PUSH1 0x40 MLOAD DUP1 SWAP2 SUB SWAP1 LOG4 POP POP JUMP JUMPDEST PUSH1 0x0 DUP1 PUSH2 0xC2B DUP4 PUSH2 0x736 JUMP JUMPDEST SWAP1 POP DUP1 PUSH20 0xFFFFFFFFFFFFFFFFFFFFFFFFFFFFFFFFFFFFFFFF AND DUP5 PUSH20 0xFFFFFFFFFFFFFFFFFFFFFFFFFFFFFFFFFFFFFFFF AND EQ DUP1 PUSH2 0xC6D JUMPI POP PUSH2 0xC6C DUP2 DUP6 PUSH2 0xA05 JUMP JUMPDEST JUMPDEST DUP1 PUSH2 0xCAB JUMPI POP DUP4 PUSH20 0xFFFFFFFFFFFFFFFFFFFFFFFFFFFFFFFFFFFFFFFF AND PUSH2 0xC93 DUP5 PUSH2 0x436 JUMP JUMPDEST PUSH20 0xFFFFFFFFFFFFFFFFFFFFFFFFFFFFFFFFFFFFFFFF AND EQ JUMPDEST SWAP2 POP POP SWAP3 SWAP2 POP POP JUMP JUMPDEST DUP3 PUSH20 0xFFFFFFFFFFFFFFFFFFFFFFFFFFFFFFFFFFFFFFFF AND PUSH2 0xCD4 DUP3 PUSH2 0x736 JUMP JUMPDEST PUSH20 0xFFFFFFFFFFFFFFFFFFFFFFFFFFFFFFFFFFFFFFFF AND EQ PUSH2 0xD2A JUMPI PUSH1 0x40 MLOAD PUSH32 0x8C379A000000000000000000000000000000000000000000000000000000000 DUP2 MSTORE PUSH1 0x4 ADD PUSH2 0xD21 SWAP1 PUSH2 0x2D86 JUMP JUMPDEST PUSH1 0x40 MLOAD DUP1 SWAP2 SUB SWAP1 REVERT JUMPDEST PUSH1 0x0 PUSH20 0xFFFFFFFFFFFFFFFFFFFFFFFFFFFFFFFFFFFFFFFF AND DUP3 PUSH20 0xFFFFFFFFFFFFFFFFFFFFFFFFFFFFFFFFFFFFFFFF AND SUB PUSH2 0xD99 JUMPI PUSH1 0x40 MLOAD PUSH32 0x8C379A000000000000000000000000000000000000000000000000000000000 DUP2 MSTORE PUSH1 0x4 ADD PUSH2 0xD90 SWAP1 PUSH2 0x2E18 JUMP JUMPDEST PUSH1 0x40 MLOAD DUP1 SWAP2 SUB SWAP1 REVERT JUMPDEST PUSH2 0xDA6 DUP4 DUP4 DUP4 PUSH1 0x1 PUSH2 0x1496 JUMP JUMPDEST DUP3 PUSH20 0xFFFFFFFFFFFFFFFFFFFFFFFFFFFFFFFFFFFFFFFF AND PUSH2 0xDC6 DUP3 PUSH2 0x736 JUMP JUMPDEST PUSH20 0xFFFFFFFFFFFFFFFFFFFFFFFFFFFFFFFFFFFFFFFF AND EQ PUSH2 0xE1C JUMPI PUSH1 0x40 MLOAD PUSH32 0x8C379A000000000000000000000000000000000000000000000000000000000 DUP2 MSTORE PUSH1 0x4 ADD PUSH2 0xE13 SWAP1 PUSH2 0x2D86 JUMP JUMPDEST PUSH1 0x40 MLOAD DUP1 SWAP2 SUB SWAP1 REVERT JUMPDEST PUSH1 0x4 PUSH1 0x0 DUP3 DUP2 MSTORE PUSH1 0x20 ADD SWAP1 DUP2 MSTORE PUSH1 0x20 ADD PUSH1 0x0 KECCAK256 PUSH1 0x0 PUSH2 0x100 EXP DUP2 SLOAD SWAP1 PUSH20 0xFFFFFFFFFFFFFFFFFFFFFFFFFFFFFFFFFFFFFFFF MUL NOT AND SWAP1 SSTORE PUSH1 0x1 PUSH1 0x3 PUSH1 0x0 DUP6 PUSH20 0xFFFFFFFFFFFFFFFFFFFFFFFFFFFFFFFFFFFFFFFF AND PUSH20 0xFFFFFFFFFFFFFFFFFFFFFFFFFFFFFFFFFFFFFFFF AND DUP2 MSTORE PUSH1 0x20 ADD SWAP1 DUP2 MSTORE PUSH1 0x20 ADD PUSH1 0x0 KECCAK256 PUSH1 0x0 DUP3 DUP3 SLOAD SUB SWAP3 POP POP DUP2 SWAP1 SSTORE POP PUSH1 0x1 PUSH1 0x3 PUSH1 0x0 DUP5 PUSH20 0xFFFFFFFFFFFFFFFFFFFFFFFFFFFFFFFFFFFFFFFF AND PUSH20 0xFFFFFFFFFFFFFFFFFFFFFFFFFFFFFFFFFFFFFFFF AND DUP2 MSTORE PUSH1 0x20 ADD SWAP1 DUP2 MSTORE PUSH1 0x20 ADD PUSH1 0x0 KECCAK256 PUSH1 0x0 DUP3 DUP3 SLOAD ADD SWAP3 POP POP DUP2 SWAP1 SSTORE POP DUP2 PUSH1 0x2 PUSH1 0x0 DUP4 DUP2 MSTORE PUSH1 0x20 ADD SWAP1 DUP2 MSTORE PUSH1 0x20 ADD PUSH1 0x0 KECCAK256 PUSH1 0x0 PUSH2 0x100 EXP DUP2 SLOAD DUP2 PUSH20 0xFFFFFFFFFFFFFFFFFFFFFFFFFFFFFFFFFFFFFFFF MUL NOT AND SWAP1 DUP4 PUSH20 0xFFFFFFFFFFFFFFFFFFFFFFFFFFFFFFFFFFFFFFFF AND MUL OR SWAP1 SSTORE POP DUP1 DUP3 PUSH20 0xFFFFFFFFFFFFFFFFFFFFFFFFFFFFFFFFFFFFFFFF AND DUP5 PUSH20 0xFFFFFFFFFFFFFFFFFFFFFFFFFFFFFFFFFFFFFFFF AND PUSH32 0xDDF252AD1BE2C89B69C2B068FC378DAA952BA7F163C4A11628F55A4DF523B3EF PUSH1 0x40 MLOAD PUSH1 0x40 MLOAD DUP1 SWAP2 SUB SWAP1 LOG4 PUSH2 0xFA8 DUP4 DUP4 DUP4 PUSH1 0x1 PUSH2 0x14A8 JUMP JUMPDEST POP POP POP JUMP JUMPDEST PUSH1 0x0 PUSH1 0x2 PUSH1 0x0 DUP4 DUP2 MSTORE PUSH1 0x20 ADD SWAP1 DUP2 MSTORE PUSH1 0x20 ADD PUSH1 0x0 KECCAK256 PUSH1 0x0 SWAP1 SLOAD SWAP1 PUSH2 0x100 EXP SWAP1 DIV PUSH20 0xFFFFFFFFFFFFFFFFFFFFFFFFFFFFFFFFFFFFFFFF AND SWAP1 POP SWAP2 SWAP1 POP JUMP JUMPDEST DUP2 PUSH20 0xFFFFFFFFFFFFFFFFFFFFFFFFFFFFFFFFFFFFFFFF AND DUP4 PUSH20 0xFFFFFFFFFFFFFFFFFFFFFFFFFFFFFFFFFFFFFFFF AND SUB PUSH2 0x1058 JUMPI PUSH1 0x40 MLOAD PUSH32 0x8C379A000000000000000000000000000000000000000000000000000000000 DUP2 MSTORE PUSH1 0x4 ADD PUSH2 0x104F SWAP1 PUSH2 0x2E84 JUMP JUMPDEST PUSH1 0x40 MLOAD DUP1 SWAP2 SUB SWAP1 REVERT JUMPDEST DUP1 PUSH1 0x5 PUSH1 0x0 DUP6 PUSH20 0xFFFFFFFFFFFFFFFFFFFFFFFFFFFFFFFFFFFFFFFF AND PUSH20 0xFFFFFFFFFFFFFFFFFFFFFFFFFFFFFFFFFFFFFFFF AND DUP2 MSTORE PUSH1 0x20 ADD SWAP1 DUP2 MSTORE PUSH1 0x20 ADD PUSH1 0x0 KECCAK256 PUSH1 0x0 DUP5 PUSH20 0xFFFFFFFFFFFFFFFFFFFFFFFFFFFFFFFFFFFFFFFF AND PUSH20 0xFFFFFFFFFFFFFFFFFFFFFFFFFFFFFFFFFFFFFFFF AND DUP2 MSTORE PUSH1 0x20 ADD SWAP1 DUP2 MSTORE PUSH1 0x20 ADD PUSH1 0x0 KECCAK256 PUSH1 0x0 PUSH2 0x100 EXP DUP2 SLOAD DUP2 PUSH1 0xFF MUL NOT AND SWAP1 DUP4 ISZERO ISZERO MUL OR SWAP1 SSTORE POP DUP2 PUSH20 0xFFFFFFFFFFFFFFFFFFFFFFFFFFFFFFFFFFFFFFFF AND DUP4 PUSH20 0xFFFFFFFFFFFFFFFFFFFFFFFFFFFFFFFFFFFFFFFF AND PUSH32 0x17307EAB39AB6107E8899845AD3D59BD9653F200F220920489CA2B5937696C31 DUP4 PUSH1 0x40 MLOAD PUSH2 0x1149 SWAP2 SWAP1 PUSH2 0x2218 JUMP JUMPDEST PUSH1 0x40 MLOAD DUP1 SWAP2 SUB SWAP1 LOG3 POP POP POP JUMP JUMPDEST PUSH2 0x1161 DUP5 DUP5 DUP5 PUSH2 0xCB4 JUMP JUMPDEST PUSH2 0x116D DUP5 DUP5 DUP5 DUP5 PUSH2 0x14AE JUMP JUMPDEST PUSH2 0x11AC JUMPI PUSH1 0x40 MLOAD PUSH32 0x8C379A000000000000000000000000000000000000000000000000000000000 DUP2 MSTORE PUSH1 0x4 ADD PUSH2 0x11A3 SWAP1 PUSH2 0x2F16 JUMP JUMPDEST PUSH1 0x40 MLOAD DUP1 SWAP2 SUB SWAP1 REVERT JUMPDEST POP POP POP POP JUMP JUMPDEST PUSH1 0x60 PUSH2 0x11BD DUP3 PUSH2 0xB13 JUMP JUMPDEST PUSH1 0x0 PUSH1 0xA PUSH1 0x0 DUP5 DUP2 MSTORE PUSH1 0x20 ADD SWAP1 DUP2 MSTORE PUSH1 0x20 ADD PUSH1 0x0 KECCAK256 DUP1 SLOAD PUSH2 0x11DD SWAP1 PUSH2 0x284A JUMP JUMPDEST DUP1 PUSH1 0x1F ADD PUSH1 0x20 DUP1 SWAP2 DIV MUL PUSH1 0x20 ADD PUSH1 0x40 MLOAD SWAP1 DUP2 ADD PUSH1 0x40 MSTORE DUP1 SWAP3 SWAP2 SWAP1 DUP2 DUP2 MSTORE PUSH1 0x20 ADD DUP3 DUP1 SLOAD PUSH2 0x1209 SWAP1 PUSH2 0x284A JUMP JUMPDEST DUP1 ISZERO PUSH2 0x1256 JUMPI DUP1 PUSH1 0x1F LT PUSH2 0x122B JUMPI PUSH2 0x100 DUP1 DUP4 SLOAD DIV MUL DUP4 MSTORE SWAP2 PUSH1 0x20 ADD SWAP2 PUSH2 0x1256 JUMP JUMPDEST DUP3 ADD SWAP2 SWAP1 PUSH1 0x0 MSTORE PUSH1 0x20 PUSH1 0x0 KECCAK256 SWAP1 JUMPDEST DUP2 SLOAD DUP2 MSTORE SWAP1 PUSH1 0x1 ADD SWAP1 PUSH1 0x20 ADD DUP1 DUP4 GT PUSH2 0x1239 JUMPI DUP3 SWAP1 SUB PUSH1 0x1F AND DUP3 ADD SWAP2 JUMPDEST POP POP POP POP POP SWAP1 POP PUSH1 0x0 PUSH2 0x1267 PUSH2 0x1635 JUMP JUMPDEST SWAP1 POP PUSH1 0x0 DUP2 MLOAD SUB PUSH2 0x127C JUMPI DUP2 SWAP3 POP POP POP PUSH2 0x12BF JUMP JUMPDEST PUSH1 0x0 DUP3 MLOAD GT ISZERO PUSH2 0x12B1 JUMPI DUP1 DUP3 PUSH1 0x40 MLOAD PUSH1 0x20 ADD PUSH2 0x1299 SWAP3 SWAP2 SWAP1 PUSH2 0x2F72 JUMP JUMPDEST PUSH1 0x40 MLOAD PUSH1 0x20 DUP2 DUP4 SUB SUB DUP2 MSTORE SWAP1 PUSH1 0x40 MSTORE SWAP3 POP POP POP PUSH2 0x12BF JUMP JUMPDEST PUSH2 0x12BA DUP5 PUSH2 0x164C JUMP JUMPDEST SWAP3 POP POP POP JUMPDEST SWAP2 SWAP1 POP JUMP JUMPDEST PUSH1 0x0 DUP2 PUSH1 0x0 ADD SLOAD SWAP1 POP SWAP2 SWAP1 POP JUMP JUMPDEST PUSH1 0x1 DUP2 PUSH1 0x0 ADD PUSH1 0x0 DUP3 DUP3 SLOAD ADD SWAP3 POP POP DUP2 SWAP1 SSTORE POP POP JUMP JUMPDEST PUSH2 0x1302 DUP3 DUP3 PUSH1 0x40 MLOAD DUP1 PUSH1 0x20 ADD PUSH1 0x40 MSTORE DUP1 PUSH1 0x0 DUP2 MSTORE POP PUSH2 0x16B4 JUMP JUMPDEST POP POP JUMP JUMPDEST PUSH2 0x130F DUP3 PUSH2 0x1455 JUMP JUMPDEST PUSH2 0x134E JUMPI PUSH1 0x40 MLOAD PUSH32 0x8C379A000000000000000000000000000000000000000000000000000000000 DUP2 MSTORE PUSH1 0x4 ADD PUSH2 0x1345 SWAP1 PUSH2 0x3008 JUMP JUMPDEST PUSH1 0x40 MLOAD DUP1 SWAP2 SUB SWAP1 REVERT JUMPDEST DUP1 PUSH1 0xA PUSH1 0x0 DUP5 DUP2 MSTORE PUSH1 0x20 ADD SWAP1 DUP2 MSTORE PUSH1 0x20 ADD PUSH1 0x0 KECCAK256 SWAP1 DUP2 PUSH2 0x136E SWAP2 SWAP1 PUSH2 0x31D4 JUMP JUMPDEST POP POP POP JUMP JUMPDEST PUSH1 0x0 PUSH32 0x80AC58CD00000000000000000000000000000000000000000000000000000000 PUSH28 0xFFFFFFFFFFFFFFFFFFFFFFFFFFFFFFFFFFFFFFFFFFFFFFFFFFFFFFFF NOT AND DUP3 PUSH28 0xFFFFFFFFFFFFFFFFFFFFFFFFFFFFFFFFFFFFFFFFFFFFFFFFFFFFFFFF NOT AND EQ DUP1 PUSH2 0x143E JUMPI POP PUSH32 0x5B5E139F00000000000000000000000000000000000000000000000000000000 PUSH28 0xFFFFFFFFFFFFFFFFFFFFFFFFFFFFFFFFFFFFFFFFFFFFFFFFFFFFFFFF NOT AND DUP3 PUSH28 0xFFFFFFFFFFFFFFFFFFFFFFFFFFFFFFFFFFFFFFFFFFFFFFFFFFFFFFFF NOT AND EQ JUMPDEST DUP1 PUSH2 0x144E JUMPI POP PUSH2 0x144D DUP3 PUSH2 0x170F JUMP JUMPDEST JUMPDEST SWAP1 POP SWAP2 SWAP1 POP JUMP JUMPDEST PUSH1 0x0 DUP1 PUSH20 0xFFFFFFFFFFFFFFFFFFFFFFFFFFFFFFFFFFFFFFFF AND PUSH2 0x1477 DUP4 PUSH2 0xFAD JUMP JUMPDEST PUSH20 0xFFFFFFFFFFFFFFFFFFFFFFFFFFFFFFFFFFFFFFFF AND EQ ISZERO SWAP1 POP SWAP2 SWAP1 POP JUMP JUMPDEST PUSH2 0x14A2 DUP5 DUP5 DUP5 DUP5 PUSH2 0x1779 JUMP JUMPDEST POP POP POP POP JUMP JUMPDEST POP POP POP POP JUMP JUMPDEST PUSH1 0x0 PUSH2 0x14CF DUP5 PUSH20 0xFFFFFFFFFFFFFFFFFFFFFFFFFFFFFFFFFFFFFFFF AND PUSH2 0x18D7 JUMP JUMPDEST ISZERO PUSH2 0x1628 JUMPI DUP4 PUSH20 0xFFFFFFFFFFFFFFFFFFFFFFFFFFFFFFFFFFFFFFFF AND PUSH4 0x150B7A02 PUSH2 0x14F8 PUSH2 0xB5E JUMP JUMPDEST DUP8 DUP7 DUP7 PUSH1 0x40 MLOAD DUP6 PUSH4 0xFFFFFFFF AND PUSH1 0xE0 SHL DUP2 MSTORE PUSH1 0x4 ADD PUSH2 0x151A SWAP5 SWAP4 SWAP3 SWAP2 SWAP1 PUSH2 0x32FB JUMP JUMPDEST PUSH1 0x20 PUSH1 0x40 MLOAD DUP1 DUP4 SUB DUP2 PUSH1 0x0 DUP8 GAS CALL SWAP3 POP POP POP DUP1 ISZERO PUSH2 0x1556 JUMPI POP PUSH1 0x40 MLOAD RETURNDATASIZE PUSH1 0x1F NOT PUSH1 0x1F DUP3 ADD AND DUP3 ADD DUP1 PUSH1 0x40 MSTORE POP DUP2 ADD SWAP1 PUSH2 0x1553 SWAP2 SWAP1 PUSH2 0x335C JUMP JUMPDEST PUSH1 0x1 JUMPDEST PUSH2 0x15D8 JUMPI RETURNDATASIZE DUP1 PUSH1 0x0 DUP2 EQ PUSH2 0x1586 JUMPI PUSH1 0x40 MLOAD SWAP2 POP PUSH1 0x1F NOT PUSH1 0x3F RETURNDATASIZE ADD AND DUP3 ADD PUSH1 0x40 MSTORE RETURNDATASIZE DUP3 MSTORE RETURNDATASIZE PUSH1 0x0 PUSH1 0x20 DUP5 ADD RETURNDATACOPY PUSH2 0x158B JUMP JUMPDEST PUSH1 0x60 SWAP2 POP JUMPDEST POP PUSH1 0x0 DUP2 MLOAD SUB PUSH2 0x15D0 JUMPI PUSH1 0x40 MLOAD PUSH32 0x8C379A000000000000000000000000000000000000000000000000000000000 DUP2 MSTORE PUSH1 0x4 ADD PUSH2 0x15C7 SWAP1 PUSH2 0x2F16 JUMP JUMPDEST PUSH1 0x40 MLOAD DUP1 SWAP2 SUB SWAP1 REVERT JUMPDEST DUP1 MLOAD DUP2 PUSH1 0x20 ADD REVERT JUMPDEST PUSH4 0x150B7A02 PUSH1 0xE0 SHL PUSH28 0xFFFFFFFFFFFFFFFFFFFFFFFFFFFFFFFFFFFFFFFFFFFFFFFFFFFFFFFF NOT AND DUP2 PUSH28 0xFFFFFFFFFFFFFFFFFFFFFFFFFFFFFFFFFFFFFFFFFFFFFFFFFFFFFFFF NOT AND EQ SWAP2 POP POP PUSH2 0x162D JUMP JUMPDEST PUSH1 0x1 SWAP1 POP JUMPDEST SWAP5 SWAP4 POP POP POP POP JUMP JUMPDEST PUSH1 0x60 PUSH1 0x40 MLOAD DUP1 PUSH1 0x20 ADD PUSH1 0x40 MSTORE DUP1 PUSH1 0x0 DUP2 MSTORE POP SWAP1 POP SWAP1 JUMP JUMPDEST PUSH1 0x60 PUSH2 0x1657 DUP3 PUSH2 0xB13 JUMP JUMPDEST PUSH1 0x0 PUSH2 0x1661 PUSH2 0x1635 JUMP JUMPDEST SWAP1 POP PUSH1 0x0 DUP2 MLOAD GT PUSH2 0x1681 JUMPI PUSH1 0x40 MLOAD DUP1 PUSH1 0x20 ADD PUSH1 0x40 MSTORE DUP1 PUSH1 0x0 DUP2 MSTORE POP PUSH2 0x16AC JUMP JUMPDEST DUP1 PUSH2 0x168B DUP5 PUSH2 0x18FA JUMP JUMPDEST PUSH1 0x40 MLOAD PUSH1 0x20 ADD PUSH2 0x169C SWAP3 SWAP2 SWAP1 PUSH2 0x2F72 JUMP JUMPDEST PUSH1 0x40 MLOAD PUSH1 0x20 DUP2 DUP4 SUB SUB DUP2 MSTORE SWAP1 PUSH1 0x40 MSTORE JUMPDEST SWAP2 POP POP SWAP2 SWAP1 POP JUMP JUMPDEST PUSH2 0x16BE DUP4 DUP4 PUSH2 0x19C8 JUMP JUMPDEST PUSH2 0x16CB PUSH1 0x0 DUP5 DUP5 DUP5 PUSH2 0x14AE JUMP JUMPDEST PUSH2 0x170A JUMPI PUSH1 0x40 MLOAD PUSH32 0x8C379A000000000000000000000000000000000000000000000000000000000 DUP2 MSTORE PUSH1 0x4 ADD PUSH2 0x1701 SWAP1 PUSH2 0x2F16 JUMP JUMPDEST PUSH1 0x40 MLOAD DUP1 SWAP2 SUB SWAP1 REVERT JUMPDEST POP POP POP JUMP JUMPDEST PUSH1 0x0 PUSH32 0x1FFC9A700000000000000000000000000000000000000000000000000000000 PUSH28 0xFFFFFFFFFFFFFFFFFFFFFFFFFFFFFFFFFFFFFFFFFFFFFFFFFFFFFFFF NOT AND DUP3 PUSH28 0xFFFFFFFFFFFFFFFFFFFFFFFFFFFFFFFFFFFFFFFFFFFFFFFFFFFFFFFF NOT AND EQ SWAP1 POP SWAP2 SWAP1 POP JUMP JUMPDEST PUSH2 0x1785 DUP5 DUP5 DUP5 DUP5 PUSH2 0x1BE5 JUMP JUMPDEST PUSH1 0x1 DUP2 GT ISZERO PUSH2 0x17C9 JUMPI PUSH1 0x40 MLOAD PUSH32 0x8C379A000000000000000000000000000000000000000000000000000000000 DUP2 MSTORE PUSH1 0x4 ADD PUSH2 0x17C0 SWAP1 PUSH2 0x33FB JUMP JUMPDEST PUSH1 0x40 MLOAD DUP1 SWAP2 SUB SWAP1 REVERT JUMPDEST PUSH1 0x0 DUP3 SWAP1 POP PUSH1 0x0 PUSH20 0xFFFFFFFFFFFFFFFFFFFFFFFFFFFFFFFFFFFFFFFF AND DUP6 PUSH20 0xFFFFFFFFFFFFFFFFFFFFFFFFFFFFFFFFFFFFFFFF AND SUB PUSH2 0x1810 JUMPI PUSH2 0x180B DUP2 PUSH2 0x1D0B JUMP JUMPDEST PUSH2 0x184F JUMP JUMPDEST DUP4 PUSH20 0xFFFFFFFFFFFFFFFFFFFFFFFFFFFFFFFFFFFFFFFF AND DUP6 PUSH20 0xFFFFFFFFFFFFFFFFFFFFFFFFFFFFFFFFFFFFFFFF AND EQ PUSH2 0x184E JUMPI PUSH2 0x184D DUP6 DUP3 PUSH2 0x1D54 JUMP JUMPDEST JUMPDEST JUMPDEST PUSH1 0x0 PUSH20 0xFFFFFFFFFFFFFFFFFFFFFFFFFFFFFFFFFFFFFFFF AND DUP5 PUSH20 0xFFFFFFFFFFFFFFFFFFFFFFFFFFFFFFFFFFFFFFFF AND SUB PUSH2 0x1891 JUMPI PUSH2 0x188C DUP2 PUSH2 0x1EC1 JUMP JUMPDEST PUSH2 0x18D0 JUMP JUMPDEST DUP5 PUSH20 0xFFFFFFFFFFFFFFFFFFFFFFFFFFFFFFFFFFFFFFFF AND DUP5 PUSH20 0xFFFFFFFFFFFFFFFFFFFFFFFFFFFFFFFFFFFFFFFF AND EQ PUSH2 0x18CF JUMPI PUSH2 0x18CE DUP5 DUP3 PUSH2 0x1F92 JUMP JUMPDEST JUMPDEST JUMPDEST POP POP POP POP POP JUMP JUMPDEST PUSH1 0x0 DUP1 DUP3 PUSH20 0xFFFFFFFFFFFFFFFFFFFFFFFFFFFFFFFFFFFFFFFF AND EXTCODESIZE GT SWAP1 POP SWAP2 SWAP1 POP JUMP JUMPDEST PUSH1 0x60 PUSH1 0x0 PUSH1 0x1 PUSH2 0x1909 DUP5 PUSH2 0x2011 JUMP JUMPDEST ADD SWAP1 POP PUSH1 0x0 DUP2 PUSH8 0xFFFFFFFFFFFFFFFF DUP2 GT ISZERO PUSH2 0x1928 JUMPI PUSH2 0x1927 PUSH2 0x2530 JUMP JUMPDEST JUMPDEST PUSH1 0x40 MLOAD SWAP1 DUP1 DUP3 MSTORE DUP1 PUSH1 0x1F ADD PUSH1 0x1F NOT AND PUSH1 0x20 ADD DUP3 ADD PUSH1 0x40 MSTORE DUP1 ISZERO PUSH2 0x195A JUMPI DUP2 PUSH1 0x20 ADD PUSH1 0x1 DUP3 MUL DUP1 CALLDATASIZE DUP4 CALLDATACOPY DUP1 DUP3 ADD SWAP2 POP POP SWAP1 POP JUMPDEST POP SWAP1 POP PUSH1 0x0 DUP3 PUSH1 0x20 ADD DUP3 ADD SWAP1 POP JUMPDEST PUSH1 0x1 ISZERO PUSH2 0x19BD JUMPI DUP1 DUP1 PUSH1 0x1 SWAP1 SUB SWAP2 POP POP PUSH32 0x3031323334353637383961626364656600000000000000000000000000000000 PUSH1 0xA DUP7 MOD BYTE DUP2 MSTORE8 PUSH1 0xA DUP6 DUP2 PUSH2 0x19B1 JUMPI PUSH2 0x19B0 PUSH2 0x341B JUMP JUMPDEST JUMPDEST DIV SWAP5 POP PUSH1 0x0 DUP6 SUB PUSH2 0x1968 JUMPI JUMPDEST DUP2 SWAP4 POP POP POP POP SWAP2 SWAP1 POP JUMP JUMPDEST PUSH1 0x0 PUSH20 0xFFFFFFFFFFFFFFFFFFFFFFFFFFFFFFFFFFFFFFFF AND DUP3 PUSH20 0xFFFFFFFFFFFFFFFFFFFFFFFFFFFFFFFFFFFFFFFF AND SUB PUSH2 0x1A37 JUMPI PUSH1 0x40 MLOAD PUSH32 0x8C379A000000000000000000000000000000000000000000000000000000000 DUP2 MSTORE PUSH1 0x4 ADD PUSH2 0x1A2E SWAP1 PUSH2 0x3496 JUMP JUMPDEST PUSH1 0x40 MLOAD DUP1 SWAP2 SUB SWAP1 REVERT JUMPDEST PUSH2 0x1A40 DUP2 PUSH2 0x1455 JUMP JUMPDEST ISZERO PUSH2 0x1A80 JUMPI PUSH1 0x40 MLOAD PUSH32 0x8C379A000000000000000000000000000000000000000000000000000000000 DUP2 MSTORE PUSH1 0x4 ADD PUSH2 0x1A77 SWAP1 PUSH2 0x3502 JUMP JUMPDEST PUSH1 0x40 MLOAD DUP1 SWAP2 SUB SWAP1 REVERT JUMPDEST PUSH2 0x1A8E PUSH1 0x0 DUP4 DUP4 PUSH1 0x1 PUSH2 0x1496 JUMP JUMPDEST PUSH2 0x1A97 DUP2 PUSH2 0x1455 JUMP JUMPDEST ISZERO PUSH2 0x1AD7 JUMPI PUSH1 0x40 MLOAD PUSH32 0x8C379A000000000000000000000000000000000000000000000000000000000 DUP2 MSTORE PUSH1 0x4 ADD PUSH2 0x1ACE SWAP1 PUSH2 0x3502 JUMP JUMPDEST PUSH1 0x40 MLOAD DUP1 SWAP2 SUB SWAP1 REVERT JUMPDEST PUSH1 0x1 PUSH1 0x3 PUSH1 0x0 DUP5 PUSH20 0xFFFFFFFFFFFFFFFFFFFFFFFFFFFFFFFFFFFFFFFF AND PUSH20 0xFFFFFFFFFFFFFFFFFFFFFFFFFFFFFFFFFFFFFFFF AND DUP2 MSTORE PUSH1 0x20 ADD SWAP1 DUP2 MSTORE PUSH1 0x20 ADD PUSH1 0x0 KECCAK256 PUSH1 0x0 DUP3 DUP3 SLOAD ADD SWAP3 POP POP DUP2 SWAP1 SSTORE POP DUP2 PUSH1 0x2 PUSH1 0x0 DUP4 DUP2 MSTORE PUSH1 0x20 ADD SWAP1 DUP2 MSTORE PUSH1 0x20 ADD PUSH1 0x0 KECCAK256 PUSH1 0x0 PUSH2 0x100 EXP DUP2 SLOAD DUP2 PUSH20 0xFFFFFFFFFFFFFFFFFFFFFFFFFFFFFFFFFFFFFFFF MUL NOT AND SWAP1 DUP4 PUSH20 0xFFFFFFFFFFFFFFFFFFFFFFFFFFFFFFFFFFFFFFFF AND MUL OR SWAP1 SSTORE POP DUP1 DUP3 PUSH20 0xFFFFFFFFFFFFFFFFFFFFFFFFFFFFFFFFFFFFFFFF AND PUSH1 0x0 PUSH20 0xFFFFFFFFFFFFFFFFFFFFFFFFFFFFFFFFFFFFFFFF AND PUSH32 0xDDF252AD1BE2C89B69C2B068FC378DAA952BA7F163C4A11628F55A4DF523B3EF PUSH1 0x40 MLOAD PUSH1 0x40 MLOAD DUP1 SWAP2 SUB SWAP1 LOG4 PUSH2 0x1BE1 PUSH1 0x0 DUP4 DUP4 PUSH1 0x1 PUSH2 0x14A8 JUMP JUMPDEST POP POP JUMP JUMPDEST PUSH1 0x1 DUP2 GT ISZERO PUSH2 0x1D05 JUMPI PUSH1 0x0 PUSH20 0xFFFFFFFFFFFFFFFFFFFFFFFFFFFFFFFFFFFFFFFF AND DUP5 PUSH20 0xFFFFFFFFFFFFFFFFFFFFFFFFFFFFFFFFFFFFFFFF AND EQ PUSH2 0x1C79 JUMPI DUP1 PUSH1 0x3 PUSH1 0x0 DUP7 PUSH20 0xFFFFFFFFFFFFFFFFFFFFFFFFFFFFFFFFFFFFFFFF AND PUSH20 0xFFFFFFFFFFFFFFFFFFFFFFFFFFFFFFFFFFFFFFFF AND DUP2 MSTORE PUSH1 0x20 ADD SWAP1 DUP2 MSTORE PUSH1 0x20 ADD PUSH1 0x0 KECCAK256 PUSH1 0x0 DUP3 DUP3 SLOAD PUSH2 0x1C71 SWAP2 SWAP1 PUSH2 0x3551 JUMP JUMPDEST SWAP3 POP POP DUP2 SWAP1 SSTORE POP JUMPDEST PUSH1 0x0 PUSH20 0xFFFFFFFFFFFFFFFFFFFFFFFFFFFFFFFFFFFFFFFF AND DUP4 PUSH20 0xFFFFFFFFFFFFFFFFFFFFFFFFFFFFFFFFFFFFFFFF AND EQ PUSH2 0x1D04 JUMPI DUP1 PUSH1 0x3 PUSH1 0x0 DUP6 PUSH20 0xFFFFFFFFFFFFFFFFFFFFFFFFFFFFFFFFFFFFFFFF AND PUSH20 0xFFFFFFFFFFFFFFFFFFFFFFFFFFFFFFFFFFFFFFFF AND DUP2 MSTORE PUSH1 0x20 ADD SWAP1 DUP2 MSTORE PUSH1 0x20 ADD PUSH1 0x0 KECCAK256 PUSH1 0x0 DUP3 DUP3 SLOAD PUSH2 0x1CFC SWAP2 SWAP1 PUSH2 0x3585 JUMP JUMPDEST SWAP3 POP POP DUP2 SWAP1 SSTORE POP JUMPDEST JUMPDEST POP POP POP POP JUMP JUMPDEST PUSH1 0x8 DUP1 SLOAD SWAP1 POP PUSH1 0x9 PUSH1 0x0 DUP4 DUP2 MSTORE PUSH1 0x20 ADD SWAP1 DUP2 MSTORE PUSH1 0x20 ADD PUSH1 0x0 KECCAK256 DUP2 SWAP1 SSTORE POP PUSH1 0x8 DUP2 SWAP1 DUP1 PUSH1 0x1 DUP2 SLOAD ADD DUP1 DUP3 SSTORE DUP1 SWAP2 POP POP PUSH1 0x1 SWAP1 SUB SWAP1 PUSH1 0x0 MSTORE PUSH1 0x20 PUSH1 0x0 KECCAK256 ADD PUSH1 0x0 SWAP1 SWAP2 SWAP1 SWAP2 SWAP1 SWAP2 POP SSTORE POP JUMP JUMPDEST PUSH1 0x0 PUSH1 0x1 PUSH2 0x1D61 DUP5 PUSH2 0x7BC JUMP JUMPDEST PUSH2 0x1D6B SWAP2 SWAP1 PUSH2 0x3551 JUMP JUMPDEST SWAP1 POP PUSH1 0x0 PUSH1 0x7 PUSH1 0x0 DUP5 DUP2 MSTORE PUSH1 0x20 ADD SWAP1 DUP2 MSTORE PUSH1 0x20 ADD PUSH1 0x0 KECCAK256 SLOAD SWAP1 POP DUP2 DUP2 EQ PUSH2 0x1E50 JUMPI PUSH1 0x0 PUSH1 0x6 PUSH1 0x0 DUP7 PUSH20 0xFFFFFFFFFFFFFFFFFFFFFFFFFFFFFFFFFFFFFFFF AND PUSH20 0xFFFFFFFFFFFFFFFFFFFFFFFFFFFFFFFFFFFFFFFF AND DUP2 MSTORE PUSH1 0x20 ADD SWAP1 DUP2 MSTORE PUSH1 0x20 ADD PUSH1 0x0 KECCAK256 PUSH1 0x0 DUP5 DUP2 MSTORE PUSH1 0x20 ADD SWAP1 DUP2 MSTORE PUSH1 0x20 ADD PUSH1 0x0 KECCAK256 SLOAD SWAP1 POP DUP1 PUSH1 0x6 PUSH1 0x0 DUP8 PUSH20 0xFFFFFFFFFFFFFFFFFFFFFFFFFFFFFFFFFFFFFFFF AND PUSH20 0xFFFFFFFFFFFFFFFFFFFFFFFFFFFFFFFFFFFFFFFF AND DUP2 MSTORE PUSH1 0x20 ADD SWAP1 DUP2 MSTORE PUSH1 0x20 ADD PUSH1 0x0 KECCAK256 PUSH1 0x0 DUP5 DUP2 MSTORE PUSH1 0x20 ADD SWAP1 DUP2 MSTORE PUSH1 0x20 ADD PUSH1 0x0 KECCAK256 DUP2 SWAP1 SSTORE POP DUP2 PUSH1 0x7 PUSH1 0x0 DUP4 DUP2 MSTORE PUSH1 0x20 ADD SWAP1 DUP2 MSTORE PUSH1 0x20 ADD PUSH1 0x0 KECCAK256 DUP2 SWAP1 SSTORE POP POP JUMPDEST PUSH1 0x7 PUSH1 0x0 DUP5 DUP2 MSTORE PUSH1 0x20 ADD SWAP1 DUP2 MSTORE PUSH1 0x20 ADD PUSH1 0x0 KECCAK256 PUSH1 0x0 SWAP1 SSTORE PUSH1 0x6 PUSH1 0x0 DUP6 PUSH20 0xFFFFFFFFFFFFFFFFFFFFFFFFFFFFFFFFFFFFFFFF AND PUSH20 0xFFFFFFFFFFFFFFFFFFFFFFFFFFFFFFFFFFFFFFFF AND DUP2 MSTORE PUSH1 0x20 ADD SWAP1 DUP2 MSTORE PUSH1 0x20 ADD PUSH1 0x0 KECCAK256 PUSH1 0x0 DUP4 DUP2 MSTORE PUSH1 0x20 ADD SWAP1 DUP2 MSTORE PUSH1 0x20 ADD PUSH1 0x0 KECCAK256 PUSH1 0x0 SWAP1 SSTORE POP POP POP POP JUMP JUMPDEST PUSH1 0x0 PUSH1 0x1 PUSH1 0x8 DUP1 SLOAD SWAP1 POP PUSH2 0x1ED5 SWAP2 SWAP1 PUSH2 0x3551 JUMP JUMPDEST SWAP1 POP PUSH1 0x0 PUSH1 0x9 PUSH1 0x0 DUP5 DUP2 MSTORE PUSH1 0x20 ADD SWAP1 DUP2 MSTORE PUSH1 0x20 ADD PUSH1 0x0 KECCAK256 SLOAD SWAP1 POP PUSH1 0x0 PUSH1 0x8 DUP4 DUP2 SLOAD DUP2 LT PUSH2 0x1F05 JUMPI PUSH2 0x1F04 PUSH2 0x2B55 JUMP JUMPDEST JUMPDEST SWAP1 PUSH1 0x0 MSTORE PUSH1 0x20 PUSH1 0x0 KECCAK256 ADD SLOAD SWAP1 POP DUP1 PUSH1 0x8 DUP4 DUP2 SLOAD DUP2 LT PUSH2 0x1F27 JUMPI PUSH2 0x1F26 PUSH2 0x2B55 JUMP JUMPDEST JUMPDEST SWAP1 PUSH1 0x0 MSTORE PUSH1 0x20 PUSH1 0x0 KECCAK256 ADD DUP2 SWAP1 SSTORE POP DUP2 PUSH1 0x9 PUSH1 0x0 DUP4 DUP2 MSTORE PUSH1 0x20 ADD SWAP1 DUP2 MSTORE PUSH1 0x20 ADD PUSH1 0x0 KECCAK256 DUP2 SWAP1 SSTORE POP PUSH1 0x9 PUSH1 0x0 DUP6 DUP2 MSTORE PUSH1 0x20 ADD SWAP1 DUP2 MSTORE PUSH1 0x20 ADD PUSH1 0x0 KECCAK256 PUSH1 0x0 SWAP1 SSTORE PUSH1 0x8 DUP1 SLOAD DUP1 PUSH2 0x1F76 JUMPI PUSH2 0x1F75 PUSH2 0x35B9 JUMP JUMPDEST JUMPDEST PUSH1 0x1 SWAP1 SUB DUP2 DUP2 SWAP1 PUSH1 0x0 MSTORE PUSH1 0x20 PUSH1 0x0 KECCAK256 ADD PUSH1 0x0 SWAP1 SSTORE SWAP1 SSTORE POP POP POP POP JUMP JUMPDEST PUSH1 0x0 PUSH2 0x1F9D DUP4 PUSH2 0x7BC JUMP JUMPDEST SWAP1 POP DUP2 PUSH1 0x6 PUSH1 0x0 DUP6 PUSH20 0xFFFFFFFFFFFFFFFFFFFFFFFFFFFFFFFFFFFFFFFF AND PUSH20 0xFFFFFFFFFFFFFFFFFFFFFFFFFFFFFFFFFFFFFFFF AND DUP2 MSTORE PUSH1 0x20 ADD SWAP1 DUP2 MSTORE PUSH1 0x20 ADD PUSH1 0x0 KECCAK256 PUSH1 0x0 DUP4 DUP2 MSTORE PUSH1 0x20 ADD SWAP1 DUP2 MSTORE PUSH1 0x20 ADD PUSH1 0x0 KECCAK256 DUP2 SWAP1 SSTORE POP DUP1 PUSH1 0x7 PUSH1 0x0 DUP5 DUP2 MSTORE PUSH1 0x20 ADD SWAP1 DUP2 MSTORE PUSH1 0x20 ADD PUSH1 0x0 KECCAK256 DUP2 SWAP1 SSTORE POP POP POP POP JUMP JUMPDEST PUSH1 0x0 DUP1 PUSH1 0x0 SWAP1 POP PUSH27 0x184F03E93FF9F4DAA797ED6E38ED64BF6A1F010000000000000000 DUP4 LT PUSH2 0x206F JUMPI PUSH27 0x184F03E93FF9F4DAA797ED6E38ED64BF6A1F010000000000000000 DUP4 DUP2 PUSH2 0x2065 JUMPI PUSH2 0x2064 PUSH2 0x341B JUMP JUMPDEST JUMPDEST DIV SWAP3 POP PUSH1 0x40 DUP2 ADD SWAP1 POP JUMPDEST PUSH14 0x4EE2D6D415B85ACEF8100000000 DUP4 LT PUSH2 0x20AC JUMPI PUSH14 0x4EE2D6D415B85ACEF8100000000 DUP4 DUP2 PUSH2 0x20A2 JUMPI PUSH2 0x20A1 PUSH2 0x341B JUMP JUMPDEST JUMPDEST DIV SWAP3 POP PUSH1 0x20 DUP2 ADD SWAP1 POP JUMPDEST PUSH7 0x2386F26FC10000 DUP4 LT PUSH2 0x20DB JUMPI PUSH7 0x2386F26FC10000 DUP4 DUP2 PUSH2 0x20D1 JUMPI PUSH2 0x20D0 PUSH2 0x341B JUMP JUMPDEST JUMPDEST DIV SWAP3 POP PUSH1 0x10 DUP2 ADD SWAP1 POP JUMPDEST PUSH4 0x5F5E100 DUP4 LT PUSH2 0x2104 JUMPI PUSH4 0x5F5E100 DUP4 DUP2 PUSH2 0x20FA JUMPI PUSH2 0x20F9 PUSH2 0x341B JUMP JUMPDEST JUMPDEST DIV SWAP3 POP PUSH1 0x8 DUP2 ADD SWAP1 POP JUMPDEST PUSH2 0x2710 DUP4 LT PUSH2 0x2129 JUMPI PUSH2 0x2710 DUP4 DUP2 PUSH2 0x211F JUMPI PUSH2 0x211E PUSH2 0x341B JUMP JUMPDEST JUMPDEST DIV SWAP3 POP PUSH1 0x4 DUP2 ADD SWAP1 POP JUMPDEST PUSH1 0x64 DUP4 LT PUSH2 0x214C JUMPI PUSH1 0x64 DUP4 DUP2 PUSH2 0x2142 JUMPI PUSH2 0x2141 PUSH2 0x341B JUMP JUMPDEST JUMPDEST DIV SWAP3 POP PUSH1 0x2 DUP2 ADD SWAP1 POP JUMPDEST PUSH1 0xA DUP4 LT PUSH2 0x215B JUMPI PUSH1 0x1 DUP2 ADD SWAP1 POP JUMPDEST DUP1 SWAP2 POP POP SWAP2 SWAP1 POP JUMP JUMPDEST PUSH1 0x0 PUSH1 0x40 MLOAD SWAP1 POP SWAP1 JUMP JUMPDEST PUSH1 0x0 DUP1 REVERT JUMPDEST PUSH1 0x0 DUP1 REVERT JUMPDEST PUSH1 0x0 PUSH32 0xFFFFFFFF00000000000000000000000000000000000000000000000000000000 DUP3 AND SWAP1 POP SWAP2 SWAP1 POP JUMP JUMPDEST PUSH2 0x21AD DUP2 PUSH2 0x2178 JUMP JUMPDEST DUP2 EQ PUSH2 0x21B8 JUMPI PUSH1 0x0 DUP1 REVERT JUMPDEST POP JUMP JUMPDEST PUSH1 0x0 DUP2 CALLDATALOAD SWAP1 POP PUSH2 0x21CA DUP2 PUSH2 0x21A4 JUMP JUMPDEST SWAP3 SWAP2 POP POP JUMP JUMPDEST PUSH1 0x0 PUSH1 0x20 DUP3 DUP5 SUB SLT ISZERO PUSH2 0x21E6 JUMPI PUSH2 0x21E5 PUSH2 0x216E JUMP JUMPDEST JUMPDEST PUSH1 0x0 PUSH2 0x21F4 DUP5 DUP3 DUP6 ADD PUSH2 0x21BB JUMP JUMPDEST SWAP2 POP POP SWAP3 SWAP2 POP POP JUMP JUMPDEST PUSH1 0x0 DUP2 ISZERO ISZERO SWAP1 POP SWAP2 SWAP1 POP JUMP JUMPDEST PUSH2 0x2212 DUP2 PUSH2 0x21FD JUMP JUMPDEST DUP3 MSTORE POP POP JUMP JUMPDEST PUSH1 0x0 PUSH1 0x20 DUP3 ADD SWAP1 POP PUSH2 0x222D PUSH1 0x0 DUP4 ADD DUP5 PUSH2 0x2209 JUMP JUMPDEST SWAP3 SWAP2 POP POP JUMP JUMPDEST PUSH1 0x0 DUP2 MLOAD SWAP1 POP SWAP2 SWAP1 POP JUMP JUMPDEST PUSH1 0x0 DUP3 DUP3 MSTORE PUSH1 0x20 DUP3 ADD SWAP1 POP SWAP3 SWAP2 POP POP JUMP JUMPDEST PUSH1 0x0 JUMPDEST DUP4 DUP2 LT ISZERO PUSH2 0x226D JUMPI DUP1 DUP3 ADD MLOAD DUP2 DUP5 ADD MSTORE PUSH1 0x20 DUP2 ADD SWAP1 POP PUSH2 0x2252 JUMP JUMPDEST PUSH1 0x0 DUP5 DUP5 ADD MSTORE POP POP POP POP JUMP JUMPDEST PUSH1 0x0 PUSH1 0x1F NOT PUSH1 0x1F DUP4 ADD AND SWAP1 POP SWAP2 SWAP1 POP JUMP JUMPDEST PUSH1 0x0 PUSH2 0x2295 DUP3 PUSH2 0x2233 JUMP JUMPDEST PUSH2 0x229F DUP2 DUP6 PUSH2 0x223E JUMP JUMPDEST SWAP4 POP PUSH2 0x22AF DUP2 DUP6 PUSH1 0x20 DUP7 ADD PUSH2 0x224F JUMP JUMPDEST PUSH2 0x22B8 DUP2 PUSH2 0x2279 JUMP JUMPDEST DUP5 ADD SWAP2 POP POP SWAP3 SWAP2 POP POP JUMP JUMPDEST PUSH1 0x0 PUSH1 0x20 DUP3 ADD SWAP1 POP DUP2 DUP2 SUB PUSH1 0x0 DUP4 ADD MSTORE PUSH2 0x22DD DUP2 DUP5 PUSH2 0x228A JUMP JUMPDEST SWAP1 POP SWAP3 SWAP2 POP POP JUMP JUMPDEST PUSH1 0x0 DUP2 SWAP1 POP SWAP2 SWAP1 POP JUMP JUMPDEST PUSH2 0x22F8 DUP2 PUSH2 0x22E5 JUMP JUMPDEST DUP2 EQ PUSH2 0x2303 JUMPI PUSH1 0x0 DUP1 REVERT JUMPDEST POP JUMP JUMPDEST PUSH1 0x0 DUP2 CALLDATALOAD SWAP1 POP PUSH2 0x2315 DUP2 PUSH2 0x22EF JUMP JUMPDEST SWAP3 SWAP2 POP POP JUMP JUMPDEST PUSH1 0x0 PUSH1 0x20 DUP3 DUP5 SUB SLT ISZERO PUSH2 0x2331 JUMPI PUSH2 0x2330 PUSH2 0x216E JUMP JUMPDEST JUMPDEST PUSH1 0x0 PUSH2 0x233F DUP5 DUP3 DUP6 ADD PUSH2 0x2306 JUMP JUMPDEST SWAP2 POP POP SWAP3 SWAP2 POP POP JUMP JUMPDEST PUSH1 0x0 PUSH20 0xFFFFFFFFFFFFFFFFFFFFFFFFFFFFFFFFFFFFFFFF DUP3 AND SWAP1 POP SWAP2 SWAP1 POP JUMP JUMPDEST PUSH1 0x0 PUSH2 0x2373 DUP3 PUSH2 0x2348 JUMP JUMPDEST SWAP1 POP SWAP2 SWAP1 POP JUMP JUMPDEST PUSH2 0x2383 DUP2 PUSH2 0x2368 JUMP JUMPDEST DUP3 MSTORE POP POP JUMP JUMPDEST PUSH1 0x0 PUSH1 0x20 DUP3 ADD SWAP1 POP PUSH2 0x239E PUSH1 0x0 DUP4 ADD DUP5 PUSH2 0x237A JUMP JUMPDEST SWAP3 SWAP2 POP POP JUMP JUMPDEST PUSH2 0x23AD DUP2 PUSH2 0x2368 JUMP JUMPDEST DUP2 EQ PUSH2 0x23B8 JUMPI PUSH1 0x0 DUP1 REVERT JUMPDEST POP JUMP JUMPDEST PUSH1 0x0 DUP2 CALLDATALOAD SWAP1 POP PUSH2 0x23CA DUP2 PUSH2 0x23A4 JUMP JUMPDEST SWAP3 SWAP2 POP POP JUMP JUMPDEST PUSH1 0x0 DUP1 PUSH1 0x40 DUP4 DUP6 SUB SLT ISZERO PUSH2 0x23E7 JUMPI PUSH2 0x23E6 PUSH2 0x216E JUMP JUMPDEST JUMPDEST PUSH1 0x0 PUSH2 0x23F5 DUP6 DUP3 DUP7 ADD PUSH2 0x23BB JUMP JUMPDEST SWAP3 POP POP PUSH1 0x20 PUSH2 0x2406 DUP6 DUP3 DUP7 ADD PUSH2 0x2306 JUMP JUMPDEST SWAP2 POP POP SWAP3 POP SWAP3 SWAP1 POP JUMP JUMPDEST PUSH2 0x2419 DUP2 PUSH2 0x22E5 JUMP JUMPDEST DUP3 MSTORE POP POP JUMP JUMPDEST PUSH1 0x0 PUSH1 0x20 DUP3 ADD SWAP1 POP PUSH2 0x2434 PUSH1 0x0 DUP4 ADD DUP5 PUSH2 0x2410 JUMP JUMPDEST SWAP3 SWAP2 POP POP JUMP JUMPDEST PUSH1 0x0 DUP1 PUSH1 0x0 PUSH1 0x60 DUP5 DUP7 SUB SLT ISZERO PUSH2 0x2453 JUMPI PUSH2 0x2452 PUSH2 0x216E JUMP JUMPDEST JUMPDEST PUSH1 0x0 PUSH2 0x2461 DUP7 DUP3 DUP8 ADD PUSH2 0x23BB JUMP JUMPDEST SWAP4 POP POP PUSH1 0x20 PUSH2 0x2472 DUP7 DUP3 DUP8 ADD PUSH2 0x23BB JUMP JUMPDEST SWAP3 POP POP PUSH1 0x40 PUSH2 0x2483 DUP7 DUP3 DUP8 ADD PUSH2 0x2306 JUMP JUMPDEST SWAP2 POP POP SWAP3 POP SWAP3 POP SWAP3 JUMP JUMPDEST PUSH1 0x0 PUSH1 0x20 DUP3 DUP5 SUB SLT ISZERO PUSH2 0x24A3 JUMPI PUSH2 0x24A2 PUSH2 0x216E JUMP JUMPDEST JUMPDEST PUSH1 0x0 PUSH2 0x24B1 DUP5 DUP3 DUP6 ADD PUSH2 0x23BB JUMP JUMPDEST SWAP2 POP POP SWAP3 SWAP2 POP POP JUMP JUMPDEST PUSH2 0x24C3 DUP2 PUSH2 0x21FD JUMP JUMPDEST DUP2 EQ PUSH2 0x24CE JUMPI PUSH1 0x0 DUP1 REVERT JUMPDEST POP JUMP JUMPDEST PUSH1 0x0 DUP2 CALLDATALOAD SWAP1 POP PUSH2 0x24E0 DUP2 PUSH2 0x24BA JUMP JUMPDEST SWAP3 SWAP2 POP POP JUMP JUMPDEST PUSH1 0x0 DUP1 PUSH1 0x40 DUP4 DUP6 SUB SLT ISZERO PUSH2 0x24FD JUMPI PUSH2 0x24FC PUSH2 0x216E JUMP JUMPDEST JUMPDEST PUSH1 0x0 PUSH2 0x250B DUP6 DUP3 DUP7 ADD PUSH2 0x23BB JUMP JUMPDEST SWAP3 POP POP PUSH1 0x20 PUSH2 0x251C DUP6 DUP3 DUP7 ADD PUSH2 0x24D1 JUMP JUMPDEST SWAP2 POP POP SWAP3 POP SWAP3 SWAP1 POP JUMP JUMPDEST PUSH1 0x0 DUP1 REVERT JUMPDEST PUSH1 0x0 DUP1 REVERT JUMPDEST PUSH32 0x4E487B7100000000000000000000000000000000000000000000000000000000 PUSH1 0x0 MSTORE PUSH1 0x41 PUSH1 0x4 MSTORE PUSH1 0x24 PUSH1 0x0 REVERT JUMPDEST PUSH2 0x2568 DUP3 PUSH2 0x2279 JUMP JUMPDEST DUP2 ADD DUP2 DUP2 LT PUSH8 0xFFFFFFFFFFFFFFFF DUP3 GT OR ISZERO PUSH2 0x2587 JUMPI PUSH2 0x2586 PUSH2 0x2530 JUMP JUMPDEST JUMPDEST DUP1 PUSH1 0x40 MSTORE POP POP POP JUMP JUMPDEST PUSH1 0x0 PUSH2 0x259A PUSH2 0x2164 JUMP JUMPDEST SWAP1 POP PUSH2 0x25A6 DUP3 DUP3 PUSH2 0x255F JUMP JUMPDEST SWAP2 SWAP1 POP JUMP JUMPDEST PUSH1 0x0 PUSH8 0xFFFFFFFFFFFFFFFF DUP3 GT ISZERO PUSH2 0x25C6 JUMPI PUSH2 0x25C5 PUSH2 0x2530 JUMP JUMPDEST JUMPDEST PUSH2 0x25CF DUP3 PUSH2 0x2279 JUMP JUMPDEST SWAP1 POP PUSH1 0x20 DUP2 ADD SWAP1 POP SWAP2 SWAP1 POP JUMP JUMPDEST DUP3 DUP2 DUP4 CALLDATACOPY PUSH1 0x0 DUP4 DUP4 ADD MSTORE POP POP POP JUMP JUMPDEST PUSH1 0x0 PUSH2 0x25FE PUSH2 0x25F9 DUP5 PUSH2 0x25AB JUMP JUMPDEST PUSH2 0x2590 JUMP JUMPDEST SWAP1 POP DUP3 DUP2 MSTORE PUSH1 0x20 DUP2 ADD DUP5 DUP5 DUP5 ADD GT ISZERO PUSH2 0x261A JUMPI PUSH2 0x2619 PUSH2 0x252B JUMP JUMPDEST JUMPDEST PUSH2 0x2625 DUP5 DUP3 DUP6 PUSH2 0x25DC JUMP JUMPDEST POP SWAP4 SWAP3 POP POP POP JUMP JUMPDEST PUSH1 0x0 DUP3 PUSH1 0x1F DUP4 ADD SLT PUSH2 0x2642 JUMPI PUSH2 0x2641 PUSH2 0x2526 JUMP JUMPDEST JUMPDEST DUP2 CALLDATALOAD PUSH2 0x2652 DUP5 DUP3 PUSH1 0x20 DUP7 ADD PUSH2 0x25EB JUMP JUMPDEST SWAP2 POP POP SWAP3 SWAP2 POP POP JUMP JUMPDEST PUSH1 0x0 DUP1 PUSH1 0x0 DUP1 PUSH1 0x80 DUP6 DUP8 SUB SLT ISZERO PUSH2 0x2675 JUMPI PUSH2 0x2674 PUSH2 0x216E JUMP JUMPDEST JUMPDEST PUSH1 0x0 PUSH2 0x2683 DUP8 DUP3 DUP9 ADD PUSH2 0x23BB JUMP JUMPDEST SWAP5 POP POP PUSH1 0x20 PUSH2 0x2694 DUP8 DUP3 DUP9 ADD PUSH2 0x23BB JUMP JUMPDEST SWAP4 POP POP PUSH1 0x40 PUSH2 0x26A5 DUP8 DUP3 DUP9 ADD PUSH2 0x2306 JUMP JUMPDEST SWAP3 POP POP PUSH1 0x60 DUP6 ADD CALLDATALOAD PUSH8 0xFFFFFFFFFFFFFFFF DUP2 GT ISZERO PUSH2 0x26C6 JUMPI PUSH2 0x26C5 PUSH2 0x2173 JUMP JUMPDEST JUMPDEST PUSH2 0x26D2 DUP8 DUP3 DUP9 ADD PUSH2 0x262D JUMP JUMPDEST SWAP2 POP POP SWAP3 SWAP6 SWAP2 SWAP5 POP SWAP3 POP JUMP JUMPDEST PUSH1 0x0 PUSH8 0xFFFFFFFFFFFFFFFF DUP3 GT ISZERO PUSH2 0x26F9 JUMPI PUSH2 0x26F8 PUSH2 0x2530 JUMP JUMPDEST JUMPDEST PUSH2 0x2702 DUP3 PUSH2 0x2279 JUMP JUMPDEST SWAP1 POP PUSH1 0x20 DUP2 ADD SWAP1 POP SWAP2 SWAP1 POP JUMP JUMPDEST PUSH1 0x0 PUSH2 0x2722 PUSH2 0x271D DUP5 PUSH2 0x26DE JUMP JUMPDEST PUSH2 0x2590 JUMP JUMPDEST SWAP1 POP DUP3 DUP2 MSTORE PUSH1 0x20 DUP2 ADD DUP5 DUP5 DUP5 ADD GT ISZERO PUSH2 0x273E JUMPI PUSH2 0x273D PUSH2 0x252B JUMP JUMPDEST JUMPDEST PUSH2 0x2749 DUP5 DUP3 DUP6 PUSH2 0x25DC JUMP JUMPDEST POP SWAP4 SWAP3 POP POP POP JUMP JUMPDEST PUSH1 0x0 DUP3 PUSH1 0x1F DUP4 ADD SLT PUSH2 0x2766 JUMPI PUSH2 0x2765 PUSH2 0x2526 JUMP JUMPDEST JUMPDEST DUP2 CALLDATALOAD PUSH2 0x2776 DUP5 DUP3 PUSH1 0x20 DUP7 ADD PUSH2 0x270F JUMP JUMPDEST SWAP2 POP POP SWAP3 SWAP2 POP POP JUMP JUMPDEST PUSH1 0x0 DUP1 PUSH1 0x40 DUP4 DUP6 SUB SLT ISZERO PUSH2 0x2796 JUMPI PUSH2 0x2795 PUSH2 0x216E JUMP JUMPDEST JUMPDEST PUSH1 0x0 PUSH2 0x27A4 DUP6 DUP3 DUP7 ADD PUSH2 0x23BB JUMP JUMPDEST SWAP3 POP POP PUSH1 0x20 DUP4 ADD CALLDATALOAD PUSH8 0xFFFFFFFFFFFFFFFF DUP2 GT ISZERO PUSH2 0x27C5 JUMPI PUSH2 0x27C4 PUSH2 0x2173 JUMP JUMPDEST JUMPDEST PUSH2 0x27D1 DUP6 DUP3 DUP7 ADD PUSH2 0x2751 JUMP JUMPDEST SWAP2 POP POP SWAP3 POP SWAP3 SWAP1 POP JUMP JUMPDEST PUSH1 0x0 DUP1 PUSH1 0x40 DUP4 DUP6 SUB SLT ISZERO PUSH2 0x27F2 JUMPI PUSH2 0x27F1 PUSH2 0x216E JUMP JUMPDEST JUMPDEST PUSH1 0x0 PUSH2 0x2800 DUP6 DUP3 DUP7 ADD PUSH2 0x23BB JUMP JUMPDEST SWAP3 POP POP PUSH1 0x20 PUSH2 0x2811 DUP6 DUP3 DUP7 ADD PUSH2 0x23BB JUMP JUMPDEST SWAP2 POP POP SWAP3 POP SWAP3 SWAP1 POP JUMP JUMPDEST PUSH32 0x4E487B7100000000000000000000000000000000000000000000000000000000 PUSH1 0x0 MSTORE PUSH1 0x22 PUSH1 0x4 MSTORE PUSH1 0x24 PUSH1 0x0 REVERT JUMPDEST PUSH1 0x0 PUSH1 0x2 DUP3 DIV SWAP1 POP PUSH1 0x1 DUP3 AND DUP1 PUSH2 0x2862 JUMPI PUSH1 0x7F DUP3 AND SWAP2 POP JUMPDEST PUSH1 0x20 DUP3 LT DUP2 SUB PUSH2 0x2875 JUMPI PUSH2 0x2874 PUSH2 0x281B JUMP JUMPDEST JUMPDEST POP SWAP2 SWAP1 POP JUMP JUMPDEST PUSH32 0x4552433732313A20617070726F76616C20746F2063757272656E74206F776E65 PUSH1 0x0 DUP3 ADD MSTORE PUSH32 0x7200000000000000000000000000000000000000000000000000000000000000 PUSH1 0x20 DUP3 ADD MSTORE POP JUMP JUMPDEST PUSH1 0x0 PUSH2 0x28D7 PUSH1 0x21 DUP4 PUSH2 0x223E JUMP JUMPDEST SWAP2 POP PUSH2 0x28E2 DUP3 PUSH2 0x287B JUMP JUMPDEST PUSH1 0x40 DUP3 ADD SWAP1 POP SWAP2 SWAP1 POP JUMP JUMPDEST PUSH1 0x0 PUSH1 0x20 DUP3 ADD SWAP1 POP DUP2 DUP2 SUB PUSH1 0x0 DUP4 ADD MSTORE PUSH2 0x2906 DUP2 PUSH2 0x28CA JUMP JUMPDEST SWAP1 POP SWAP2 SWAP1 POP JUMP JUMPDEST PUSH32 0x4552433732313A20617070726F76652063616C6C6572206973206E6F7420746F PUSH1 0x0 DUP3 ADD MSTORE PUSH32 0x6B656E206F776E6572206F7220617070726F76656420666F7220616C6C000000 PUSH1 0x20 DUP3 ADD MSTORE POP JUMP JUMPDEST PUSH1 0x0 PUSH2 0x2969 PUSH1 0x3D DUP4 PUSH2 0x223E JUMP JUMPDEST SWAP2 POP PUSH2 0x2974 DUP3 PUSH2 0x290D JUMP JUMPDEST PUSH1 0x40 DUP3 ADD SWAP1 POP SWAP2 SWAP1 POP JUMP JUMPDEST PUSH1 0x0 PUSH1 0x20 DUP3 ADD SWAP1 POP DUP2 DUP2 SUB PUSH1 0x0 DUP4 ADD MSTORE PUSH2 0x2998 DUP2 PUSH2 0x295C JUMP JUMPDEST SWAP1 POP SWAP2 SWAP1 POP JUMP JUMPDEST PUSH32 0x4552433732313A2063616C6C6572206973206E6F7420746F6B656E206F776E65 PUSH1 0x0 DUP3 ADD MSTORE PUSH32 0x72206F7220617070726F76656400000000000000000000000000000000000000 PUSH1 0x20 DUP3 ADD MSTORE POP JUMP JUMPDEST PUSH1 0x0 PUSH2 0x29FB PUSH1 0x2D DUP4 PUSH2 0x223E JUMP JUMPDEST SWAP2 POP PUSH2 0x2A06 DUP3 PUSH2 0x299F JUMP JUMPDEST PUSH1 0x40 DUP3 ADD SWAP1 POP SWAP2 SWAP1 POP JUMP JUMPDEST PUSH1 0x0 PUSH1 0x20 DUP3 ADD SWAP1 POP DUP2 DUP2 SUB PUSH1 0x0 DUP4 ADD MSTORE PUSH2 0x2A2A DUP2 PUSH2 0x29EE JUMP JUMPDEST SWAP1 POP SWAP2 SWAP1 POP JUMP JUMPDEST PUSH32 0x455243373231456E756D657261626C653A206F776E657220696E646578206F75 PUSH1 0x0 DUP3 ADD MSTORE PUSH32 0x74206F6620626F756E6473000000000000000000000000000000000000000000 PUSH1 0x20 DUP3 ADD MSTORE POP JUMP JUMPDEST PUSH1 0x0 PUSH2 0x2A8D PUSH1 0x2B DUP4 PUSH2 0x223E JUMP JUMPDEST SWAP2 POP PUSH2 0x2A98 DUP3 PUSH2 0x2A31 JUMP JUMPDEST PUSH1 0x40 DUP3 ADD SWAP1 POP SWAP2 SWAP1 POP JUMP JUMPDEST PUSH1 0x0 PUSH1 0x20 DUP3 ADD SWAP1 POP DUP2 DUP2 SUB PUSH1 0x0 DUP4 ADD MSTORE PUSH2 0x2ABC DUP2 PUSH2 0x2A80 JUMP JUMPDEST SWAP1 POP SWAP2 SWAP1 POP JUMP JUMPDEST PUSH32 0x455243373231456E756D657261626C653A20676C6F62616C20696E646578206F PUSH1 0x0 DUP3 ADD MSTORE PUSH32 0x7574206F6620626F756E64730000000000000000000000000000000000000000 PUSH1 0x20 DUP3 ADD MSTORE POP JUMP JUMPDEST PUSH1 0x0 PUSH2 0x2B1F PUSH1 0x2C DUP4 PUSH2 0x223E JUMP JUMPDEST SWAP2 POP PUSH2 0x2B2A DUP3 PUSH2 0x2AC3 JUMP JUMPDEST PUSH1 0x40 DUP3 ADD SWAP1 POP SWAP2 SWAP1 POP JUMP JUMPDEST PUSH1 0x0 PUSH1 0x20 DUP3 ADD SWAP1 POP DUP2 DUP2 SUB PUSH1 0x0 DUP4 ADD MSTORE PUSH2 0x2B4E DUP2 PUSH2 0x2B12 JUMP JUMPDEST SWAP1 POP SWAP2 SWAP1 POP JUMP JUMPDEST PUSH32 0x4E487B7100000000000000000000000000000000000000000000000000000000 PUSH1 0x0 MSTORE PUSH1 0x32 PUSH1 0x4 MSTORE PUSH1 0x24 PUSH1 0x0 REVERT JUMPDEST PUSH32 0x4552433732313A20696E76616C696420746F6B656E2049440000000000000000 PUSH1 0x0 DUP3 ADD MSTORE POP JUMP JUMPDEST PUSH1 0x0 PUSH2 0x2BBA PUSH1 0x18 DUP4 PUSH2 0x223E JUMP JUMPDEST SWAP2 POP PUSH2 0x2BC5 DUP3 PUSH2 0x2B84 JUMP JUMPDEST PUSH1 0x20 DUP3 ADD SWAP1 POP SWAP2 SWAP1 POP JUMP JUMPDEST PUSH1 0x0 PUSH1 0x20 DUP3 ADD SWAP1 POP DUP2 DUP2 SUB PUSH1 0x0 DUP4 ADD MSTORE PUSH2 0x2BE9 DUP2 PUSH2 0x2BAD JUMP JUMPDEST SWAP1 POP SWAP2 SWAP1 POP JUMP JUMPDEST PUSH32 0x4552433732313A2061646472657373207A65726F206973206E6F742061207661 PUSH1 0x0 DUP3 ADD MSTORE PUSH32 0x6C6964206F776E65720000000000000000000000000000000000000000000000 PUSH1 0x20 DUP3 ADD MSTORE POP JUMP JUMPDEST PUSH1 0x0 PUSH2 0x2C4C PUSH1 0x29 DUP4 PUSH2 0x223E JUMP JUMPDEST SWAP2 POP PUSH2 0x2C57 DUP3 PUSH2 0x2BF0 JUMP JUMPDEST PUSH1 0x40 DUP3 ADD SWAP1 POP SWAP2 SWAP1 POP JUMP JUMPDEST PUSH1 0x0 PUSH1 0x20 DUP3 ADD SWAP1 POP DUP2 DUP2 SUB PUSH1 0x0 DUP4 ADD MSTORE PUSH2 0x2C7B DUP2 PUSH2 0x2C3F JUMP JUMPDEST SWAP1 POP SWAP2 SWAP1 POP JUMP JUMPDEST PUSH32 0x416C6C204E46542061726520636C61696D656420616E64206D696E7465642C20 PUSH1 0x0 DUP3 ADD MSTORE PUSH32 0x736F20736F727279210000000000000000000000000000000000000000000000 PUSH1 0x20 DUP3 ADD MSTORE POP JUMP JUMPDEST PUSH1 0x0 PUSH2 0x2CDE PUSH1 0x29 DUP4 PUSH2 0x223E JUMP JUMPDEST SWAP2 POP PUSH2 0x2CE9 DUP3 PUSH2 0x2C82 JUMP JUMPDEST PUSH1 0x40 DUP3 ADD SWAP1 POP SWAP2 SWAP1 POP JUMP JUMPDEST PUSH1 0x0 PUSH1 0x20 DUP3 ADD SWAP1 POP DUP2 DUP2 SUB PUSH1 0x0 DUP4 ADD MSTORE PUSH2 0x2D0D DUP2 PUSH2 0x2CD1 JUMP JUMPDEST SWAP1 POP SWAP2 SWAP1 POP JUMP JUMPDEST PUSH32 0x4552433732313A207472616E736665722066726F6D20696E636F727265637420 PUSH1 0x0 DUP3 ADD MSTORE PUSH32 0x6F776E6572000000000000000000000000000000000000000000000000000000 PUSH1 0x20 DUP3 ADD MSTORE POP JUMP JUMPDEST PUSH1 0x0 PUSH2 0x2D70 PUSH1 0x25 DUP4 PUSH2 0x223E JUMP JUMPDEST SWAP2 POP PUSH2 0x2D7B DUP3 PUSH2 0x2D14 JUMP JUMPDEST PUSH1 0x40 DUP3 ADD SWAP1 POP SWAP2 SWAP1 POP JUMP JUMPDEST PUSH1 0x0 PUSH1 0x20 DUP3 ADD SWAP1 POP DUP2 DUP2 SUB PUSH1 0x0 DUP4 ADD MSTORE PUSH2 0x2D9F DUP2 PUSH2 0x2D63 JUMP JUMPDEST SWAP1 POP SWAP2 SWAP1 POP JUMP JUMPDEST PUSH32 0x4552433732313A207472616E7366657220746F20746865207A65726F20616464 PUSH1 0x0 DUP3 ADD MSTORE PUSH32 0x7265737300000000000000000000000000000000000000000000000000000000 PUSH1 0x20 DUP3 ADD MSTORE POP JUMP JUMPDEST PUSH1 0x0 PUSH2 0x2E02 PUSH1 0x24 DUP4 PUSH2 0x223E JUMP JUMPDEST SWAP2 POP PUSH2 0x2E0D DUP3 PUSH2 0x2DA6 JUMP JUMPDEST PUSH1 0x40 DUP3 ADD SWAP1 POP SWAP2 SWAP1 POP JUMP JUMPDEST PUSH1 0x0 PUSH1 0x20 DUP3 ADD SWAP1 POP DUP2 DUP2 SUB PUSH1 0x0 DUP4 ADD MSTORE PUSH2 0x2E31 DUP2 PUSH2 0x2DF5 JUMP JUMPDEST SWAP1 POP SWAP2 SWAP1 POP JUMP JUMPDEST PUSH32 0x4552433732313A20617070726F766520746F2063616C6C657200000000000000 PUSH1 0x0 DUP3 ADD MSTORE POP JUMP JUMPDEST PUSH1 0x0 PUSH2 0x2E6E PUSH1 0x19 DUP4 PUSH2 0x223E JUMP JUMPDEST SWAP2 POP PUSH2 0x2E79 DUP3 PUSH2 0x2E38 JUMP JUMPDEST PUSH1 0x20 DUP3 ADD SWAP1 POP SWAP2 SWAP1 POP JUMP JUMPDEST PUSH1 0x0 PUSH1 0x20 DUP3 ADD SWAP1 POP DUP2 DUP2 SUB PUSH1 0x0 DUP4 ADD MSTORE PUSH2 0x2E9D DUP2 PUSH2 0x2E61 JUMP JUMPDEST SWAP1 POP SWAP2 SWAP1 POP JUMP JUMPDEST PUSH32 0x4552433732313A207472616E7366657220746F206E6F6E204552433732315265 PUSH1 0x0 DUP3 ADD MSTORE PUSH32 0x63656976657220696D706C656D656E7465720000000000000000000000000000 PUSH1 0x20 DUP3 ADD MSTORE POP JUMP JUMPDEST PUSH1 0x0 PUSH2 0x2F00 PUSH1 0x32 DUP4 PUSH2 0x223E JUMP JUMPDEST SWAP2 POP PUSH2 0x2F0B DUP3 PUSH2 0x2EA4 JUMP JUMPDEST PUSH1 0x40 DUP3 ADD SWAP1 POP SWAP2 SWAP1 POP JUMP JUMPDEST PUSH1 0x0 PUSH1 0x20 DUP3 ADD SWAP1 POP DUP2 DUP2 SUB PUSH1 0x0 DUP4 ADD MSTORE PUSH2 0x2F2F DUP2 PUSH2 0x2EF3 JUMP JUMPDEST SWAP1 POP SWAP2 SWAP1 POP JUMP JUMPDEST PUSH1 0x0 DUP2 SWAP1 POP SWAP3 SWAP2 POP POP JUMP JUMPDEST PUSH1 0x0 PUSH2 0x2F4C DUP3 PUSH2 0x2233 JUMP JUMPDEST PUSH2 0x2F56 DUP2 DUP6 PUSH2 0x2F36 JUMP JUMPDEST SWAP4 POP PUSH2 0x2F66 DUP2 DUP6 PUSH1 0x20 DUP7 ADD PUSH2 0x224F JUMP JUMPDEST DUP1 DUP5 ADD SWAP2 POP POP SWAP3 SWAP2 POP POP JUMP JUMPDEST PUSH1 0x0 PUSH2 0x2F7E DUP3 DUP6 PUSH2 0x2F41 JUMP JUMPDEST SWAP2 POP PUSH2 0x2F8A DUP3 DUP5 PUSH2 0x2F41 JUMP JUMPDEST SWAP2 POP DUP2 SWAP1 POP SWAP4 SWAP3 POP POP POP JUMP JUMPDEST PUSH32 0x45524337323155524953746F726167653A2055524920736574206F66206E6F6E PUSH1 0x0 DUP3 ADD MSTORE PUSH32 0x6578697374656E7420746F6B656E000000000000000000000000000000000000 PUSH1 0x20 DUP3 ADD MSTORE POP JUMP JUMPDEST PUSH1 0x0 PUSH2 0x2FF2 PUSH1 0x2E DUP4 PUSH2 0x223E JUMP JUMPDEST SWAP2 POP PUSH2 0x2FFD DUP3 PUSH2 0x2F96 JUMP JUMPDEST PUSH1 0x40 DUP3 ADD SWAP1 POP SWAP2 SWAP1 POP JUMP JUMPDEST PUSH1 0x0 PUSH1 0x20 DUP3 ADD SWAP1 POP DUP2 DUP2 SUB PUSH1 0x0 DUP4 ADD MSTORE PUSH2 0x3021 DUP2 PUSH2 0x2FE5 JUMP JUMPDEST SWAP1 POP SWAP2 SWAP1 POP JUMP JUMPDEST PUSH1 0x0 DUP2 SWAP1 POP DUP2 PUSH1 0x0 MSTORE PUSH1 0x20 PUSH1 0x0 KECCAK256 SWAP1 POP SWAP2 SWAP1 POP JUMP JUMPDEST PUSH1 0x0 PUSH1 0x20 PUSH1 0x1F DUP4 ADD DIV SWAP1 POP SWAP2 SWAP1 POP JUMP JUMPDEST PUSH1 0x0 DUP3 DUP3 SHL SWAP1 POP SWAP3 SWAP2 POP POP JUMP JUMPDEST PUSH1 0x0 PUSH1 0x8 DUP4 MUL PUSH2 0x308A PUSH32 0xFFFFFFFFFFFFFFFFFFFFFFFFFFFFFFFFFFFFFFFFFFFFFFFFFFFFFFFFFFFFFFFF DUP3 PUSH2 0x304D JUMP JUMPDEST PUSH2 0x3094 DUP7 DUP4 PUSH2 0x304D JUMP JUMPDEST SWAP6 POP DUP1 NOT DUP5 AND SWAP4 POP DUP1 DUP7 AND DUP5 OR SWAP3 POP POP POP SWAP4 SWAP3 POP POP POP JUMP JUMPDEST PUSH1 0x0 DUP2 SWAP1 POP SWAP2 SWAP1 POP JUMP JUMPDEST PUSH1 0x0 PUSH2 0x30D1 PUSH2 0x30CC PUSH2 0x30C7 DUP5 PUSH2 0x22E5 JUMP JUMPDEST PUSH2 0x30AC JUMP JUMPDEST PUSH2 0x22E5 JUMP JUMPDEST SWAP1 POP SWAP2 SWAP1 POP JUMP JUMPDEST PUSH1 0x0 DUP2 SWAP1 POP SWAP2 SWAP1 POP JUMP JUMPDEST PUSH2 0x30EB DUP4 PUSH2 0x30B6 JUMP JUMPDEST PUSH2 0x30FF PUSH2 0x30F7 DUP3 PUSH2 0x30D8 JUMP JUMPDEST DUP5 DUP5 SLOAD PUSH2 0x305A JUMP JUMPDEST DUP3 SSTORE POP POP POP POP JUMP JUMPDEST PUSH1 0x0 SWAP1 JUMP JUMPDEST PUSH2 0x3114 PUSH2 0x3107 JUMP JUMPDEST PUSH2 0x311F DUP2 DUP5 DUP5 PUSH2 0x30E2 JUMP JUMPDEST POP POP POP JUMP JUMPDEST JUMPDEST DUP2 DUP2 LT ISZERO PUSH2 0x3143 JUMPI PUSH2 0x3138 PUSH1 0x0 DUP3 PUSH2 0x310C JUMP JUMPDEST PUSH1 0x1 DUP2 ADD SWAP1 POP PUSH2 0x3125 JUMP JUMPDEST POP POP JUMP JUMPDEST PUSH1 0x1F DUP3 GT ISZERO PUSH2 0x3188 JUMPI PUSH2 0x3159 DUP2 PUSH2 0x3028 JUMP JUMPDEST PUSH2 0x3162 DUP5 PUSH2 0x303D JUMP JUMPDEST DUP2 ADD PUSH1 0x20 DUP6 LT ISZERO PUSH2 0x3171 JUMPI DUP2 SWAP1 POP JUMPDEST PUSH2 0x3185 PUSH2 0x317D DUP6 PUSH2 0x303D JUMP JUMPDEST DUP4 ADD DUP3 PUSH2 0x3124 JUMP JUMPDEST POP POP JUMPDEST POP POP POP JUMP JUMPDEST PUSH1 0x0 DUP3 DUP3 SHR SWAP1 POP SWAP3 SWAP2 POP POP JUMP JUMPDEST PUSH1 0x0 PUSH2 0x31AB PUSH1 0x0 NOT DUP5 PUSH1 0x8 MUL PUSH2 0x318D JUMP JUMPDEST NOT DUP1 DUP4 AND SWAP2 POP POP SWAP3 SWAP2 POP POP JUMP JUMPDEST PUSH1 0x0 PUSH2 0x31C4 DUP4 DUP4 PUSH2 0x319A JUMP JUMPDEST SWAP2 POP DUP3 PUSH1 0x2 MUL DUP3 OR SWAP1 POP SWAP3 SWAP2 POP POP JUMP JUMPDEST PUSH2 0x31DD DUP3 PUSH2 0x2233 JUMP JUMPDEST PUSH8 0xFFFFFFFFFFFFFFFF DUP2 GT ISZERO PUSH2 0x31F6 JUMPI PUSH2 0x31F5 PUSH2 0x2530 JUMP JUMPDEST JUMPDEST PUSH2 0x3200 DUP3 SLOAD PUSH2 0x284A JUMP JUMPDEST PUSH2 0x320B DUP3 DUP3 DUP6 PUSH2 0x3147 JUMP JUMPDEST PUSH1 0x0 PUSH1 0x20 SWAP1 POP PUSH1 0x1F DUP4 GT PUSH1 0x1 DUP2 EQ PUSH2 0x323E JUMPI PUSH1 0x0 DUP5 ISZERO PUSH2 0x322C JUMPI DUP3 DUP8 ADD MLOAD SWAP1 POP JUMPDEST PUSH2 0x3236 DUP6 DUP3 PUSH2 0x31B8 JUMP JUMPDEST DUP7 SSTORE POP PUSH2 0x329E JUMP JUMPDEST PUSH1 0x1F NOT DUP5 AND PUSH2 0x324C DUP7 PUSH2 0x3028 JUMP JUMPDEST PUSH1 0x0 JUMPDEST DUP3 DUP2 LT ISZERO PUSH2 0x3274 JUMPI DUP5 DUP10 ADD MLOAD DUP3 SSTORE PUSH1 0x1 DUP3 ADD SWAP2 POP PUSH1 0x20 DUP6 ADD SWAP5 POP PUSH1 0x20 DUP2 ADD SWAP1 POP PUSH2 0x324F JUMP JUMPDEST DUP7 DUP4 LT ISZERO PUSH2 0x3291 JUMPI DUP5 DUP10 ADD MLOAD PUSH2 0x328D PUSH1 0x1F DUP10 AND DUP3 PUSH2 0x319A JUMP JUMPDEST DUP4 SSTORE POP JUMPDEST PUSH1 0x1 PUSH1 0x2 DUP9 MUL ADD DUP9 SSTORE POP POP POP JUMPDEST POP POP POP POP POP POP JUMP JUMPDEST PUSH1 0x0 DUP2 MLOAD SWAP1 POP SWAP2 SWAP1 POP JUMP JUMPDEST PUSH1 0x0 DUP3 DUP3 MSTORE PUSH1 0x20 DUP3 ADD SWAP1 POP SWAP3 SWAP2 POP POP JUMP JUMPDEST PUSH1 0x0 PUSH2 0x32CD DUP3 PUSH2 0x32A6 JUMP JUMPDEST PUSH2 0x32D7 DUP2 DUP6 PUSH2 0x32B1 JUMP JUMPDEST SWAP4 POP PUSH2 0x32E7 DUP2 DUP6 PUSH1 0x20 DUP7 ADD PUSH2 0x224F JUMP JUMPDEST PUSH2 0x32F0 DUP2 PUSH2 0x2279 JUMP JUMPDEST DUP5 ADD SWAP2 POP POP SWAP3 SWAP2 POP POP JUMP JUMPDEST PUSH1 0x0 PUSH1 0x80 DUP3 ADD SWAP1 POP PUSH2 0x3310 PUSH1 0x0 DUP4 ADD DUP8 PUSH2 0x237A JUMP JUMPDEST PUSH2 0x331D PUSH1 0x20 DUP4 ADD DUP7 PUSH2 0x237A JUMP JUMPDEST PUSH2 0x332A PUSH1 0x40 DUP4 ADD DUP6 PUSH2 0x2410 JUMP JUMPDEST DUP2 DUP2 SUB PUSH1 0x60 DUP4 ADD MSTORE PUSH2 0x333C DUP2 DUP5 PUSH2 0x32C2 JUMP JUMPDEST SWAP1 POP SWAP6 SWAP5 POP POP POP POP POP JUMP JUMPDEST PUSH1 0x0 DUP2 MLOAD SWAP1 POP PUSH2 0x3356 DUP2 PUSH2 0x21A4 JUMP JUMPDEST SWAP3 SWAP2 POP POP JUMP JUMPDEST PUSH1 0x0 PUSH1 0x20 DUP3 DUP5 SUB SLT ISZERO PUSH2 0x3372 JUMPI PUSH2 0x3371 PUSH2 0x216E JUMP JUMPDEST JUMPDEST PUSH1 0x0 PUSH2 0x3380 DUP5 DUP3 DUP6 ADD PUSH2 0x3347 JUMP JUMPDEST SWAP2 POP POP SWAP3 SWAP2 POP POP JUMP JUMPDEST PUSH32 0x455243373231456E756D657261626C653A20636F6E7365637574697665207472 PUSH1 0x0 DUP3 ADD MSTORE PUSH32 0x616E7366657273206E6F7420737570706F727465640000000000000000000000 PUSH1 0x20 DUP3 ADD MSTORE POP JUMP JUMPDEST PUSH1 0x0 PUSH2 0x33E5 PUSH1 0x35 DUP4 PUSH2 0x223E JUMP JUMPDEST SWAP2 POP PUSH2 0x33F0 DUP3 PUSH2 0x3389 JUMP JUMPDEST PUSH1 0x40 DUP3 ADD SWAP1 POP SWAP2 SWAP1 POP JUMP JUMPDEST PUSH1 0x0 PUSH1 0x20 DUP3 ADD SWAP1 POP DUP2 DUP2 SUB PUSH1 0x0 DUP4 ADD MSTORE PUSH2 0x3414 DUP2 PUSH2 0x33D8 JUMP JUMPDEST SWAP1 POP SWAP2 SWAP1 POP JUMP JUMPDEST PUSH32 0x4E487B7100000000000000000000000000000000000000000000000000000000 PUSH1 0x0 MSTORE PUSH1 0x12 PUSH1 0x4 MSTORE PUSH1 0x24 PUSH1 0x0 REVERT JUMPDEST PUSH32 0x4552433732313A206D696E7420746F20746865207A65726F2061646472657373 PUSH1 0x0 DUP3 ADD MSTORE POP JUMP JUMPDEST PUSH1 0x0 PUSH2 0x3480 PUSH1 0x20 DUP4 PUSH2 0x223E JUMP JUMPDEST SWAP2 POP PUSH2 0x348B DUP3 PUSH2 0x344A JUMP JUMPDEST PUSH1 0x20 DUP3 ADD SWAP1 POP SWAP2 SWAP1 POP JUMP JUMPDEST PUSH1 0x0 PUSH1 0x20 DUP3 ADD SWAP1 POP DUP2 DUP2 SUB PUSH1 0x0 DUP4 ADD MSTORE PUSH2 0x34AF DUP2 PUSH2 0x3473 JUMP JUMPDEST SWAP1 POP SWAP2 SWAP1 POP JUMP JUMPDEST PUSH32 0x4552433732313A20746F6B656E20616C7265616479206D696E74656400000000 PUSH1 0x0 DUP3 ADD MSTORE POP JUMP JUMPDEST PUSH1 0x0 PUSH2 0x34EC PUSH1 0x1C DUP4 PUSH2 0x223E JUMP JUMPDEST SWAP2 POP PUSH2 0x34F7 DUP3 PUSH2 0x34B6 JUMP JUMPDEST PUSH1 0x20 DUP3 ADD SWAP1 POP SWAP2 SWAP1 POP JUMP JUMPDEST PUSH1 0x0 PUSH1 0x20 DUP3 ADD SWAP1 POP DUP2 DUP2 SUB PUSH1 0x0 DUP4 ADD MSTORE PUSH2 0x351B DUP2 PUSH2 0x34DF JUMP JUMPDEST SWAP1 POP SWAP2 SWAP1 POP JUMP JUMPDEST PUSH32 0x4E487B7100000000000000000000000000000000000000000000000000000000 PUSH1 0x0 MSTORE PUSH1 0x11 PUSH1 0x4 MSTORE PUSH1 0x24 PUSH1 0x0 REVERT JUMPDEST PUSH1 0x0 PUSH2 0x355C DUP3 PUSH2 0x22E5 JUMP JUMPDEST SWAP2 POP PUSH2 0x3567 DUP4 PUSH2 0x22E5 JUMP JUMPDEST SWAP3 POP DUP3 DUP3 SUB SWAP1 POP DUP2 DUP2 GT ISZERO PUSH2 0x357F JUMPI PUSH2 0x357E PUSH2 0x3522 JUMP JUMPDEST JUMPDEST SWAP3 SWAP2 POP POP JUMP JUMPDEST PUSH1 0x0 PUSH2 0x3590 DUP3 PUSH2 0x22E5 JUMP JUMPDEST SWAP2 POP PUSH2 0x359B DUP4 PUSH2 0x22E5 JUMP JUMPDEST SWAP3 POP DUP3 DUP3 ADD SWAP1 POP DUP1 DUP3 GT ISZERO PUSH2 0x35B3 JUMPI PUSH2 0x35B2 PUSH2 0x3522 JUMP JUMPDEST JUMPDEST SWAP3 SWAP2 POP POP JUMP JUMPDEST PUSH32 0x4E487B7100000000000000000000000000000000000000000000000000000000 PUSH1 0x0 MSTORE PUSH1 0x31 PUSH1 0x4 MSTORE PUSH1 0x24 PUSH1 0x0 REVERT INVALID LOG2 PUSH5 0x6970667358 0x22 SLT KECCAK256 PUSH1 0x26 DUP3 0xA7 EQ 0xD0 0x5F 0xBF DUP15 0xD9 0xCB RETURNDATASIZE 0xFC 0xFC 0xEB CODESIZE SWAP13 CALLER 0x2F 0xEF PUSH18 0xBCF5912C464D61C51AC49F64736F6C634300 ADDMOD SLT STOP CALLER "
		},
		"gasEstimates": {
			"creation": {
				"codeDepositCost": "2770800",
				"executionCost": "infinite",
				"totalCost": "infinite"
			},
			"external": {
				"approve(address,uint256)": "infinite",
				"balanceOf(address)": "2943",
				"getApproved(uint256)": "5300",
				"isApprovedForAll(address,address)": "infinite",
				"name()": "infinite",
				"ownerOf(uint256)": "3044",
				"safeMint(address,string)": "infinite",
				"safeTransferFrom(address,address,uint256)": "infinite",
				"safeTransferFrom(address,address,uint256,bytes)": "infinite",
				"setApprovalForAll(address,bool)": "infinite",
				"supportsInterface(bytes4)": "929",
				"symbol()": "infinite",
				"tokenByIndex(uint256)": "infinite",
				"tokenOfOwnerByIndex(address,uint256)": "infinite",
				"tokenURI(uint256)": "infinite",
				"totalSupply()": "2468",
				"transferFrom(address,address,uint256)": "infinite"
			},
			"internal": {
				"_beforeTokenTransfer(address,address,uint256,uint256)": "infinite",
				"_burn(uint256)": "infinite"
			}
		},
		"methodIdentifiers": {
			"approve(address,uint256)": "095ea7b3",
			"balanceOf(address)": "70a08231",
			"getApproved(uint256)": "081812fc",
			"isApprovedForAll(address,address)": "e985e9c5",
			"name()": "06fdde03",
			"ownerOf(uint256)": "6352211e",
			"safeMint(address,string)": "d204c45e",
			"safeTransferFrom(address,address,uint256)": "42842e0e",
			"safeTransferFrom(address,address,uint256,bytes)": "b88d4fde",
			"setApprovalForAll(address,bool)": "a22cb465",
			"supportsInterface(bytes4)": "01ffc9a7",
			"symbol()": "95d89b41",
			"tokenByIndex(uint256)": "4f6ccce7",
			"tokenOfOwnerByIndex(address,uint256)": "2f745c59",
			"tokenURI(uint256)": "c87b56dd",
			"totalSupply()": "18160ddd",
			"transferFrom(address,address,uint256)": "23b872dd"
		}
	},
	"abi": [
		{
			"inputs": [],
			"stateMutability": "nonpayable",
			"type": "constructor"
		},
		{
			"anonymous": false,
			"inputs": [
				{
					"indexed": true,
					"internalType": "address",
					"name": "owner",
					"type": "address"
				},
				{
					"indexed": true,
					"internalType": "address",
					"name": "approved",
					"type": "address"
				},
				{
					"indexed": true,
					"internalType": "uint256",
					"name": "tokenId",
					"type": "uint256"
				}
			],
			"name": "Approval",
			"type": "event"
		},
		{
			"anonymous": false,
			"inputs": [
				{
					"indexed": true,
					"internalType": "address",
					"name": "owner",
					"type": "address"
				},
				{
					"indexed": true,
					"internalType": "address",
					"name": "operator",
					"type": "address"
				},
				{
					"indexed": false,
					"internalType": "bool",
					"name": "approved",
					"type": "bool"
				}
			],
			"name": "ApprovalForAll",
			"type": "event"
		},
		{
			"anonymous": false,
			"inputs": [
				{
					"indexed": true,
					"internalType": "address",
					"name": "from",
					"type": "address"
				},
				{
					"indexed": true,
					"internalType": "address",
					"name": "to",
					"type": "address"
				},
				{
					"indexed": true,
					"internalType": "uint256",
					"name": "tokenId",
					"type": "uint256"
				}
			],
			"name": "Transfer",
			"type": "event"
		},
		{
			"inputs": [
				{
					"internalType": "address",
					"name": "to",
					"type": "address"
				},
				{
					"internalType": "uint256",
					"name": "tokenId",
					"type": "uint256"
				}
			],
			"name": "approve",
			"outputs": [],
			"stateMutability": "nonpayable",
			"type": "function"
		},
		{
			"inputs": [
				{
					"internalType": "address",
					"name": "owner",
					"type": "address"
				}
			],
			"name": "balanceOf",
			"outputs": [
				{
					"internalType": "uint256",
					"name": "",
					"type": "uint256"
				}
			],
			"stateMutability": "view",
			"type": "function"
		},
		{
			"inputs": [
				{
					"internalType": "uint256",
					"name": "tokenId",
					"type": "uint256"
				}
			],
			"name": "getApproved",
			"outputs": [
				{
					"internalType": "address",
					"name": "",
					"type": "address"
				}
			],
			"stateMutability": "view",
			"type": "function"
		},
		{
			"inputs": [
				{
					"internalType": "address",
					"name": "owner",
					"type": "address"
				},
				{
					"internalType": "address",
					"name": "operator",
					"type": "address"
				}
			],
			"name": "isApprovedForAll",
			"outputs": [
				{
					"internalType": "bool",
					"name": "",
					"type": "bool"
				}
			],
			"stateMutability": "view",
			"type": "function"
		},
		{
			"inputs": [],
			"name": "name",
			"outputs": [
				{
					"internalType": "string",
					"name": "",
					"type": "string"
				}
			],
			"stateMutability": "view",
			"type": "function"
		},
		{
			"inputs": [
				{
					"internalType": "uint256",
					"name": "tokenId",
					"type": "uint256"
				}
			],
			"name": "ownerOf",
			"outputs": [
				{
					"internalType": "address",
					"name": "",
					"type": "address"
				}
			],
			"stateMutability": "view",
			"type": "function"
		},
		{
			"inputs": [
				{
					"internalType": "address",
					"name": "to",
					"type": "address"
				},
				{
					"internalType": "string",
					"name": "uri",
					"type": "string"
				}
			],
			"name": "safeMint",
			"outputs": [],
			"stateMutability": "nonpayable",
			"type": "function"
		},
		{
			"inputs": [
				{
					"internalType": "address",
					"name": "from",
					"type": "address"
				},
				{
					"internalType": "address",
					"name": "to",
					"type": "address"
				},
				{
					"internalType": "uint256",
					"name": "tokenId",
					"type": "uint256"
				}
			],
			"name": "safeTransferFrom",
			"outputs": [],
			"stateMutability": "nonpayable",
			"type": "function"
		},
		{
			"inputs": [
				{
					"internalType": "address",
					"name": "from",
					"type": "address"
				},
				{
					"internalType": "address",
					"name": "to",
					"type": "address"
				},
				{
					"internalType": "uint256",
					"name": "tokenId",
					"type": "uint256"
				},
				{
					"internalType": "bytes",
					"name": "data",
					"type": "bytes"
				}
			],
			"name": "safeTransferFrom",
			"outputs": [],
			"stateMutability": "nonpayable",
			"type": "function"
		},
		{
			"inputs": [
				{
					"internalType": "address",
					"name": "operator",
					"type": "address"
				},
				{
					"internalType": "bool",
					"name": "approved",
					"type": "bool"
				}
			],
			"name": "setApprovalForAll",
			"outputs": [],
			"stateMutability": "nonpayable",
			"type": "function"
		},
		{
			"inputs": [
				{
					"internalType": "bytes4",
					"name": "interfaceId",
					"type": "bytes4"
				}
			],
			"name": "supportsInterface",
			"outputs": [
				{
					"internalType": "bool",
					"name": "",
					"type": "bool"
				}
			],
			"stateMutability": "view",
			"type": "function"
		},
		{
			"inputs": [],
			"name": "symbol",
			"outputs": [
				{
					"internalType": "string",
					"name": "",
					"type": "string"
				}
			],
			"stateMutability": "view",
			"type": "function"
		},
		{
			"inputs": [
				{
					"internalType": "uint256",
					"name": "index",
					"type": "uint256"
				}
			],
			"name": "tokenByIndex",
			"outputs": [
				{
					"internalType": "uint256",
					"name": "",
					"type": "uint256"
				}
			],
			"stateMutability": "view",
			"type": "function"
		},
		{
			"inputs": [
				{
					"internalType": "address",
					"name": "owner",
					"type": "address"
				},
				{
					"internalType": "uint256",
					"name": "index",
					"type": "uint256"
				}
			],
			"name": "tokenOfOwnerByIndex",
			"outputs": [
				{
					"internalType": "uint256",
					"name": "",
					"type": "uint256"
				}
			],
			"stateMutability": "view",
			"type": "function"
		},
		{
			"inputs": [
				{
					"internalType": "uint256",
					"name": "tokenId",
					"type": "uint256"
				}
			],
			"name": "tokenURI",
			"outputs": [
				{
					"internalType": "string",
					"name": "",
					"type": "string"
				}
			],
			"stateMutability": "view",
			"type": "function"
		},
		{
			"inputs": [],
			"name": "totalSupply",
			"outputs": [
				{
					"internalType": "uint256",
					"name": "",
					"type": "uint256"
				}
			],
			"stateMutability": "view",
			"type": "function"
		},
		{
			"inputs": [
				{
					"internalType": "address",
					"name": "from",
					"type": "address"
				},
				{
					"internalType": "address",
					"name": "to",
					"type": "address"
				},
				{
					"internalType": "uint256",
					"name": "tokenId",
					"type": "uint256"
				}
			],
			"name": "transferFrom",
			"outputs": [],
			"stateMutability": "nonpayable",
			"type": "function"
		}
	]
}